:100000000C94F3020C94271B0C9410030C94100313
:100010000C9410030C9410030C9410030C94100314
:100020000C9410030C9410030C944F220C94232373
:100030000C94681D0C9410030C9410030C94100382
:100040000C9410030C9410030C9410030C941003E4
:100050000C9410030C940B1E0C9410030C941003BE
:100060000C9410030C9410030C9410030C941003C4
:100070000C9410030C9410030C9410030C941003B4
:100080000C9410030C9410030C9410030C941003A4
:100090000C9410030C9410030C9410030C94100394
:1000A0000C9410030C9410030C94100329001E00F0
:1000B0001F002000210022002B00330036003700F3
:1000C00013001C00E10004001200080018000C00DE
:1000D000E000340014000D000E001B0000000000C2
:1000E0003500380022522C00000000002A00650074
:1000F0002B004A00230024002500260027002A00A8
:1001000009000A00060015000F002E0007000B0072
:100110001700110016002D00050010001A0019002C
:100120001D00E500280023523100E400000000001B
:100130004D004C00E300E20000000000010001005F
:100140000100010001000100010014001A00080074
:1001500015001700010004001600070009000A003E
:1001600001001D001B000600190005000000000032
:100170000100010001000100000000000100010079
:100180000100010001000100010001000100010067
:100190001C0018000C00120013002E000B000D00B4
:1001A0000E000F003300340011001000360037003D
:1001B00038002D00010001000100010000000000D6
:1001C00001000100010001000000000035021E02D4
:1001D0001F0220022102220201004A004B004E00B1
:1001E0004D002F020100500950084F084F09260208
:1001F00001003D045208DA00D9002F000000000081
:100200000452010001000100000000000100010093
:100210000100010023022402250254000000000016
:1002200030025F00600061005600000027025C00A1
:100230005D005E0057000000300059005A005B006E
:10024000670000000100005262006300000000002F
:1002500001000100010001000000000045003A001B
:100260003B003C003D003E00010000000000520049
:1002700000002F0201000000500051004F00260234
:10028000010000000000000000002F00000000003E
:100290000000000001520100000000000100010008
:1002A000010001003F0040004100420043004400C3
:1002B00030028652000000000000A8002702AC00B7
:1002C000AE00AB000000A9003000000000000000FC
:1002D0000000AA00010001005300470000000000D8
:1002E00001000100010001000000000035001E00B7
:1002F0001F002000210022002B00170014001A000C
:1003000008001500E1000A000400160007000900BB
:10031000E00005001D001B000600190000000000A1
:10032000010001002352010000000000E200E30090
:1003300028002552000000000000000000000052CC
:1003400000000000000000000000000000000000AD
:10035000000000000000000000000000000000009D
:10036000000000000000000000000000000000008D
:1003700000000000000000000000000029003A001A
:100380003B003C003D003E002B0059005A005B0042
:100390005C005D00E1005E005F00600061006200E3
:1003A000E0000D000E000F00100011000000000022
:1003B0001300120000000000000000000000000018
:1003C00000000000000000000000000000000052DB
:1003D000000000000000000000000000000000001D
:1003E000000000000000000000000000000000000D
:1003F00000000000000001000000000000000000FC
:10040000000000000000000000000000007C000070
:10041000000000000000037C00000000000000005D
:1004200000000000000000000000000000000000CC
:1004300000000000000000000000000000000000BC
:1004400000000000000000000000000000000000AC
:10045000000000000000000000000000000000524A
:10046000000000000000000000000000000000008C
:10047000000000000000000000000000000000007C
:10048000000000000000000000000000000000006C
:100490000000000000000000000000002C034400E9
:1004A00061006300740079006C002D004D00610054
:1004B0006E00750066006F0072006D00200028005D
:1004C000350078003600290000000E037400730028
:1004D00068006F0072007400000004030904090240
:1004E0003B00020100A0FA09040000010301010021
:1004F00009211101000122400007058103080001C4
:10050000090401000103000000092111010001227A
:100510007B00070582032000011201000200000099
:10052000084D44363501000102000105010902A110
:100530000185020901A100050919012908150025F5
:1005400001950875018102050109300931158125E0
:100550007F95027508810609381581257F950175FB
:10056000088106050C0A38021581257F950175085A
:100570008106C0C005010980A101850319012AB7C0
:1005800000150126B700950175108100C0050C0902
:1005900001A101850419012AA002150126A00295D6
:1005A0000175108100C005010906A101050719E0C8
:1005B00029E7150025019508750181029501750847
:1005C00081010507190029FF150026FF0095067512
:1005D0000881000508190129059505750191029505
:1005E0000175039101C011241FBECFEFDAE0DEBF19
:1005F000CDBF11E0A0E0B1E0E4EBFBE402C0059068
:100600000D92A23AB107D9F722E0A2EAB1E001C007
:100610001D92A53BB207E1F70E94E5140C949925C1
:100620000C9400008730B8F46C30A8F4463098F48D
:1006300050E096E0699F400D511D1124FA0198E4A5
:10064000899FE00DF11D1124EE0FFF1FE455FF4FB0
:1006500085919491089580E090E008950E9412039E
:10066000089581E0089581E008950E94330308957C
:1006700008950E9438030895A5E0B0E0E2E4F3E0B5
:100680000C94052549835A833091A90189819A8167
:10069000311119C0662399F0222389F00E944A097A
:1006A000182F682F89819A810E94260969817A8191
:1006B000812F0E94DF0F2596E3E00C9421250E94F4
:1006C0003809182FF3CF0E944A0969817A81F1CF46
:1006D000FC01262F408151816281738184810E94B7
:1006E0003C03089581E00895CF93DF93EC0160E02F
:1006F0000E946803BE010E943903DF91CF910895E3
:100700000E94371108950E943B11089508950E9498
:10071000F5070E9486032FEF84E39CE02150804080
:100720009040E1F700C0000008950E9487030E94F6
:100730002F1E08950E9487030E94401E08950F9364
:100740001F93CF93DF938C0161E00E946803EC015B
:10075000B8010E943503811106C080E0DF91CF917E
:100760001F910F910895B801CE010E94451A882368
:10077000A1F3B801CE010E948E17882371F3B8014E
:10078000CE010E94B719882341F3F80182818823A2
:1007900061F0C330FCE7DF07E9F058F4C115ECE77E
:1007A000DE07A9F0C130DC47B9F0C8010E9431036F
:1007B000D5CFCB358CE7D807A9F0CC35ECE7DE07F1
:1007C00071F0CA35DC4789F70E94840DEECF0E9494
:1007D0009503C3CF0E948C0D0E949A03BECF0E9446
:1007E0007A0DE3CF0E94880DE0CF0E94451D0E9444
:1007F0001F0408950E9423040E944A1D089508952D
:100800000E94FF03089581E008950895CF93DF9338
:10081000D82F0E940304C82F882319F08D2F0E941F
:1008200005048C2FDF91CF9108950895CF93C82FA1
:100830000E9400048C2F0E940604CF91089580E04E
:100840000E94160408950E944D1C0E9416040895EB
:10085000CF930E944D1CC82F8091A4018C1779F072
:10086000C093A4010E94D41D6093A5017093A601BA
:100870008093A7019093A8018C2F0E941604CF911A
:100880000895ABE0B0E0E7E4F4E00C9406254F8374
:10089000588769877A878B8761110E94C50C1E82F1
:1008A0001D8285E0FE013796DE01119601900D92C2
:1008B0008A95E1F78C819D81892B61F449815A8168
:1008C0006B817C818D819E810E94EE0B2B96E2E0F4
:1008D0000C94222589819A8189238F3F79F3CE0157
:1008E00001960E9472038111E9CFF0CFFC01808153
:1008F00091810E947C090895662329F00E94691560
:100900000E943C1608950E94C315FACFCF93C82FBA
:100910008823C9F08238C9F40E944D1C81FD13C0A0
:1009200089E30E947D0C0E94E60C2FEF87EE93E096
:10093000215080409040E1F700C0000089E30E9410
:10094000850C0E94E60CCF9108958338A1F40E9493
:100950004D1C80FDF8CF83E50E947D0C0E94E60CC3
:100960002FEF81EE94E0215080409040E1F700C0ED
:10097000000083E5E4CF8438A1F40E944D1C82FD81
:10098000E2CF87E40E947D0C0E94E60C2FEF81EEFF
:1009900094E0215080409040E1F700C0000087E4DF
:1009A000CECF8CEF8C0F813AB8F48C2F0E94FB18BD
:1009B0008111C9CF6C2F80910001909101010E949B
:1009C000D61C882329F08C2F0E94850C0E94E60CEF
:1009D0008C2F0E947D0CB5CF80E28C0F883048F4BC
:1009E000C77081E001C0880FCA95EAF70E94A80C81
:1009F000A8CFEBE5EC0FE33040F4F0E0E45AFE4F13
:100A0000808190E00E947A1C9ECFE8E5EC0FE931EE
:100A100050F4F0E0EE0FFF1FE65DFE4F8081918104
:100A20000E949F1C90CF83E38C0F833108F08BCF03
:100A300061E08C2F0E947C0486CF882309F456C085
:100A4000823879F40E944D1C81FF50C089E30E94D6
:100A50007D0C0E94E60C89E30E94850C0E94E60C46
:100A60000895833859F40E944D1C80FF3FC083E5F0
:100A70000E947D0C0E94E60C83E5EECF843859F489
:100A80000E944D1C82FF32C087E40E947D0C0E94B0
:100A9000E60C87E4E1CF9CEF980F913AE8F290E200
:100AA000980F983050F4877091E001C0990F8A95A3
:100AB000EAF7892F0E94AE0CD1CF9BE5980F9330B7
:100AC00028F490E080E00E947A1C089598E5980F41
:100AD000993128F490E080E00E949F1C089593E3F0
:100AE000980F933118F460E00E947C0408951F93DE
:100AF000CF93DF93182FEB010E948604209739F4DF
:100B0000812F0E941D05DF91CF911F9108958FE9DC
:100B10009FE00197F1F700C000002197EFCF70E050
:100B200060E0893311F460E570E00E947705089574
:100B3000882321F00E94A80C0E94E60C08958823C7
:100B400021F00E94AE0C0E94E60C0895B0E0A0E0F7
:100B5000ECEAF5E00C94FF246C01D62FC72FFC01C2
:100B60001281F580F2949FE0F9220E949E0CE82EFB
:100B70008823B9F0E12E1123A1F08C2F807F8034DF
:100B800021F080E28D0F8830D0F08091890282FFC1
:100B900016C082E00E94490D0E949E0C91E0E82E52
:100BA000E926BC2EB2948FE0B822FBE0FB1508F4D6
:100BB00068C0EB2DF0E0E556FA4D0C94F024E12CE2
:100BC000F0CF0C2F0F70C07F11F00295007F112322
:100BD00099F0002359F080E28D0F883010F0D11188
:100BE00007C0802F0E94A80C0E94E60C8D2F41C0E8
:100BF000802F0E94B80CF8CF8D2F0E941D05002376
:100C000009F43FC080E28D0F883010F0D11104C08C
:100C1000802F0E94AE0C03C0802F0E94BE0C0E9449
:100C2000E60C2FC00C2F0F70C07FC03211F0029560
:100C3000007FDD2381F0D13009F468C0112309F46D
:100C400072C0FF2009F468C0F601858180FFCECF15
:100C50008F70858361C08091890282FD33C011232A
:100C600059F0002329F0802F0E94A80C0E94E60C66
:100C700080E00E94860405C080E00E941D050111ED
:100C8000C7CFEB2DE850FF0B349720F40E944D1C8A
:100C90000E941604EE2089F00E949A0C80FD0DC07F
:100CA000F60112820E94940C0E948408C6010E94E0
:100CB000B5070E94940C0E949408CDB7DEB7E9E016
:100CC0000C941B25112389F0F11006C00E94C80C5A
:100CD000802B0E949805D5CF21E0F212F7CF0E9419
:100CE000C80C802B0E94CF0CCCCFF11006C00E9404
:100CF000DC0C802F0E949F05C4CF31E0F31609F26F
:100D0000802F0E949F050E94DC0CBBCF112331F085
:100D100085E08F1508F4B5CF802FDBCF94E09F15C9
:100D200008F4AFCFE6CFFF2021F3D93349F4FFEF2A
:100D300027EE33E0F15020403040E1F700C00000E2
:100D40008D2F0E941D059DCF8C2F869586958370D3
:100D500069F0813009F095CF8D2F9C2F9370111180
:100D600002C080E090E00E949F1C8BCF8D2F9C2FB3
:100D70009370111102C080E090E00E947A1C81CF34
:100D8000612F8D2F0E947C047CCF8C2F8370A1F566
:100D9000111177CF4D2F429546954770440F440F60
:100DA0002D2F2F7030E0042E02C0220F331F0A9423
:100DB000E2F790E080E0D4FF09C08FE090E002C04D
:100DC000880F991F4A95E2F780959095C695C6952C
:100DD000C370822B932BC23049F058F4C13019F004
:100DE0000E9454084ECF0E944B084BCF0E945D08D2
:100DF00048CF0E94480845CF8695112311F08C2FCB
:100E00008170882309F43DCF4D2F42954695477058
:100E1000440F440F2D2F2F7030E0042E02C0220FFC
:100E2000331F0A94E2F790E080E0D4FF09C08FE01E
:100E300090E002C0880F991F4A95E2F7809590953F
:100E4000C695C695C370822B932BC23049F058F4D7
:100E5000C13019F00E94BF0814CF0E94B60811CF0C
:100E60000E94C8080ECF0E946C080BCFCF701123D0
:100E700029F08C2F0E9484088D2F2BCF8D2F0E945C
:100E80009F058C2F0E949408FCCED23F51F160F454
:100E9000D03FB9F0D13F81F0112309F449C0F110DE
:100EA000A5CE8C2F8F7121C0D33F11F1D43FA1F774
:100EB0008091890282FD26C08C2F8F71112311F33E
:100EC00014C0112349F084E08F1508F4DACE8C2F7A
:100ED0008F710E94A608D5CE95E09F1508F4D1CE5B
:100EE000F6CF8C2F8F711111CDCF0E948408C9CEFF
:100EF000112329F08C2F8F710E947808C2CE0E9496
:100F00007308BFCE112349F0CF718C2F0E94840843
:100F100063E08C2F0E942B0DB4CE81E00E94490D1E
:100F2000E1E0EF1508F0ADCE82E00E94490DA9CEB8
:100F3000F110FBCE8C2F8F71A5CF0F931F93CF9302
:100F4000DF93EC01688179818A810E9487098C0195
:100F50000E94D1080E944708B801CE010E94A60550
:100F6000DF91CF911F910F910895CF93DF93EC0103
:100F70008B819C81892B29F08881998189238F3FDE
:100F800051F4DF91CF910895CE010E949D07CE01CB
:100F90000E947403F6CFCE010E949F038111F4CF0B
:100FA0000E949E0C882369F38A81882351F38091E3
:100FB000890282FFE6CF82E00E94490DE2CF90E0F5
:100FC00080E00E947A1C90E080E00E949F1C0E94BA
:100FD000C50C0E94E60C0E9458160E943C1608950B
:100FE0000E948D0C0E94DF0708950E94B50C0E949C
:100FF000F007089592959F70963091F058F4925FA3
:101000009F70923058F4803F19F030F4883E30F4ED
:1010100081E008959A5FF4CF843FD1F380E0089592
:10102000883EB0F3813FD1F7F3CFFC0183819481F7
:10103000892B29F08081918189238F3F11F480E0F1
:101040000895808191810E947C090E94FA07089589
:10105000A5E0B0E0EEE2F8E00C9406252596E2E08B
:101060000C942225A6E0B0E0E8E3F8E00C94062515
:101070002696E2E00C94222508950E943C080895EB
:101080000E943D089093D1018093D0010895089566
:101090000E94400808952091D0013091D101822B07
:1010A000932B0E94400808952091D0013091D101E6
:1010B000822393230E94400808952091D00130910B
:1010C000D101822793270E94400808950E943C087E
:1010D00008950E94660808950E9469089093CF01C0
:1010E0008093CE01089590E080E00E946C080895FE
:1010F00021E030E0A90102C0440F551F8A95E2F7B4
:10110000CA010E946C08089521E030E002C0220F5D
:10111000331F8A95E2F78091CE019091CF01822B07
:10112000932B0E946C08089521E030E002C0220F4A
:10113000331F8A95E2F7209530958091CE019091EA
:10114000CF01822393230E946C08089521E030E0B0
:1011500002C0220F331F8A95E2F78091CE01909151
:10116000CF01822793270E946C0808952091CE0119
:101170003091CF01822B932B0E946C08089520910F
:10118000CE013091CF01822393230E946C080895F1
:101190002091CE013091CF01822793270E946C08C5
:1011A00008950895262F277091E001C0990F2A9580
:1011B000EAF723E0769567952A95E1F7660F771FA2
:1011C000660F771FFA01E60FF71F50E040E0682F27
:1011D00070E08191DF0111979B01042E02C03695CA
:1011E00027950A94E2F7217021952827292328279B
:1011F0002C934F5F5F4F4430510559F70895A82F46
:10120000A77023E0969587952A95E1F7880F991F97
:10121000880F991FFB01E80FF91F50E040E080E0C4
:10122000219130E00A2E02C0369527950A94E2F704
:1012300021703327042E01C0220F0A94EAF7822B73
:101240004F5F5F4F4430510559F70895262F9C306A
:1012500070F4863060F4682F70E086E0989F600D2F
:10126000711D11244AEA51E0822F0E94D20808958C
:10127000292F9C3068F4863058F490E06AEA71E0D7
:1012800036E0239F800D911D11240E94FF080895D0
:1012900080E00895B0E0A0E0E0E5F9E00C94FF24E0
:1012A0007C010091CE011091CF018091D0019091ED
:1012B000D101082B192BCFE0D0E0CC24C394D12C42
:1012C000BC2EC6010C2E02C0880F991F0A94E2F7AB
:1012D00080239123892B49F4219790F7B12C8B2DF2
:1012E000CDB7DEB7E9E00C941B25B7018C2F0E9427
:1012F000EB0F019789F3F3CFCF93DF93EC010E94BB
:101300004A09BE010E94EB0FDF91CF9108951F9310
:10131000CF93DF93EB019091A901992339F0CB0191
:101320000E947C09DF91CF911F910895882369F075
:10133000CB010E944A09182F682FCE010E9426096E
:10134000BE01812F0E94EB0FEDCFCB010E94380927
:10135000182FF6CF1F93CF93DF93C091D20116E0E1
:101360008091D3018C1304C0DF91CF911F91089518
:10137000D0E01C9FF0011D9FF00D1124EC52FE4F98
:101380004081518162817381848195810E943208FC
:101390002196C770E5CF40910402509105026091FB
:1013A00006027091070280910802909109020E9442
:1013B000320808952091D2019091D30156E029136B
:1013C00002C080E0089530E0529FF001539FF00D7D
:1013D0001124EC52FE4F7181761306C07081781390
:1013E00003C07281741304C02F5F3F4F2770E7CF93
:1013F00081E008951F93CF93DF9380910902807F4E
:1014000009F049C080910602882309F444C0809104
:10141000D201C091D3016091040270910502A091A4
:101420000702B0910802D62FD72316E0C81799F10A
:1014300090E0109711F0DF3F19F401968770F6CF16
:10144000189F9001199F300D1124F901EC52FE4FA5
:1014500041814713F2CF40814613EFCF42814111C2
:10146000ECCF438154814A1B5B0B483C510528F764
:10147000809109028F70806180930902F901E7521F
:10148000FE4F80818F708061808384E092E00E94B3
:10149000B5070E94AA09DF91CF911F910895A1E19C
:1014A000B0E0E5E5FAE00C94FC248C0185E0F8015D
:1014B000DE011D9601900D928A95E1F7D8011296F2
:1014C000EC90129784E0A82E82E0B82E409107029B
:1014D000509108024115510509F461C1909104022F
:1014E00020910502892F82238F3F09F458C1CC90A7
:1014F0001196DC90119713968D909C901497F09014
:101500000602F401E41BF50BFF2009F4F6C08091FC
:101510000902382F307FE83CF10508F0B0C03111E6
:101520007BC0FE2CD21217C09C1115C0E11013C055
:101530008F708061809309020E94CB09C5010E94CF
:10154000B50780910902D80115968C938F2D61966D
:10155000ECE00C9418258114910429F08D2D8C2138
:101560008F3F09F038C180E080FF15C04E2D6D2DF2
:101570008C2D0E94DA09882371F084E092E00E94A9
:10158000B50786E0E4E0F2E0DF011D928A95E9F715
:101590000E94CB093FC08114910429F08D2D8C212C
:1015A0008F3F09F015C180E0B82FB170AB2E80FFDE
:1015B00029C04E2D6D2D8C2D0E94DA09B82E811177
:1015C00021C0CD86DE868D859E850E947C09292FCF
:1015D00022952F70223050F0243078F49F7051F013
:1015E000F8019581907F31F4FB2CB0CF9F7011F002
:1015F0008823D1F3805E8830B8F3C8010E94B50714
:10160000BA2CF2CFEE2009F4A1CF809109028160BB
:1016100080930902F12C9ACFD21205C09C1103C00D
:10162000EE2009F487C0C8010E941508882319F12B
:10163000EE2009F180910902803270F020910402BD
:101640003091050238872F8319869B868A868C877E
:10165000CE0107960E94B50786E0F801A4E0B2E04B
:1016600001900D928A95E1F70E94FA090E94CB0938
:10167000FF24F3946BCFC8010E94B507F9CF311155
:1016800012C0782D998A888AA6016E2D89890E94B8
:10169000280884E092E00E94B50786E0F5011192E7
:1016A0008A95E9F775CFD2120FC09C110DC0E110D9
:1016B0000BC015968C93C8010E94B50786E0F50112
:1016C00011928A95E9F742CFC8010E941508882334
:1016D00091F2EE2081F280910902803208F4BCCFB1
:1016E00020910402309105023A8329831B829D8256
:1016F0008C828E83CE010196ADCFE83CF10508F0D7
:1017000040C0FE2CEE2009F4B6CFD2122CC09C11A2
:101710002AC08091090280FD1DC0982F907FD1F0D2
:1017200015968C931597903F39F0982F907F905F86
:101730008F70892B15968C93C8010E94B50786E09F
:10174000F801A4E0B2E001900D928A95E1F70E94C1
:10175000CB09FCCE86E0F801A4E0B2E001900D9246
:101760008A95E1F7F3CEC8010E941508811174CF64
:1017700080910902816080930902C8010E94B50727
:10178000E5CE782D998A888AA6016E2D89890E94D6
:10179000280886E0F50111928A95E9F7D8CFEE2066
:1017A00009F469CFC8010E941508F82E882309F4AE
:1017B00062CF86E0F801A4E0B2E001900D928A9534
:1017C000E1F784E092E00E9476040E94FA09BFCF1C
:1017D00081E08E25E9CE81E08E25C6CEACE0B0E07A
:1017E000E4EFFBE00C9405254F83588769877A87DF
:1017F0008B879C87CE0107960E944F0A882369F049
:101800008A859B85892B39F04F815885842F8523C4
:101810008F3F09F06BC016E05FC086E0FE0137968F
:10182000DE01119601900D928A95E1F78A859B85DC
:10183000892B89F388859F8189238F3F61F32091CC
:10184000D30130E0C9010196877099274091D201F8
:101850004817190671F40E94F5071092D3011092EF
:10186000D20186E0E4E0F2E0DF011D928A95E9F71B
:10187000D2CF96E0929FD001939FB00D1124AC522D
:10188000BE4FFE01319601900D929A95E1F780933B
:10189000D3010E94AA09BFCF819FC00111248C529D
:1018A0009E4F0E944F0A8823E9F0E091D2011E9FCB
:1018B000F0011124EC52FE4F40815181628173810D
:1018C000848195810E9432088091D20190E0019636
:1018D000877099278093D2018091D2019091D30192
:1018E0008913DACF2C96E3E00C94212569857A855B
:1018F0008B859C850E9432088ECF682F80910001D5
:10190000909101010E940C1D0895682F80910001A3
:10191000909101010E940F1D089580910001909106
:1019200001010E94121D08958091120285958595EE
:101930008595089580911202877008959091120202
:10194000977081E009F480E0089580911D02089568
:1019500090911D02892B80931D020895809590918E
:101960001D02982390931D02089510921D02089560
:1019700090911C02892B80931C0208958095909170
:101980001C02982390931C02089510921C02089543
:1019900080911302089508950E94CB0C08959091B0
:1019A000890292FF08C090911302981721F080934A
:1019B00013020E94CC0C089580911302882329F011
:1019C0001092130280E00E94CC0C0895CF93DF9315
:1019D000E0910001F091010180911D028083E0916E
:1019E0000001F0910101808190911C02892B80837C
:1019F00090911302992381F0E0910001F09101018F
:101A00008081892B808380910001909101010E9447
:101A1000C41C81110E94DC0CC0910001D091010115
:101A200048E050E06AE072E0CE010E944125892B37
:101A300059F088E0FE01AAE0B2E001900D928A958B
:101A4000E1F7CE010E94611CDF91CF9108950895C6
:101A50000E94270D08959091890292FF11C098E08D
:101A6000899F90011124622B609312020E948408C6
:101A7000809112028595859585950E94280D08957F
:101A80000E94840808951092120280E00E94280D9E
:101A90000895909112028095892380931202282F35
:101AA000277091F4282F082E000C330B9217130681
:101AB00059F09091890292FF07C08595859585958B
:101AC0000E9494080E94430D08959091890292FB10
:101AD000222720F9281769F080FB92F99093890258
:101AE00080918802909189020E94AD0D82E00E944F
:101AF000490D08958091890282FB882780F991E041
:101B000089270E94650D089581E00E94650D089562
:101B100080E00E94650D08956FEF7FEF90E080E018
:101B20000E948325089590E080E00E945F2521E0D7
:101B3000873E9E4F09F020E0822F089582E090E0DA
:101B40000E945725089583E090E00E94572508954C
:101B500084E090E00E945F250895BC0184E090E05D
:101B60000E9483250895AB01BC018FE090E00E94A4
:101B700077250895AB01BC0183E190E00E947725B1
:101B8000089560E070E0CB010E94BA0D089560E016
:101B900070E0CB010E94B30D0E94C10D089567EE65
:101BA0007EEF90E080E00E94832560E082E090E09C
:101BB0000E94652560E083E090E00E946525109218
:101BC000D1011092D00160E074E184E090E00E94C5
:101BD000832560E086E090E00E9465256FEF87E056
:101BE00090E00E94652540E050E0BA0188E090E076
:101BF0000E94772560E08DE090E00E94652540E03E
:101C000050E0BA0188E190E00E94772560E087E12A
:101C100090E00E94652540E050E0BA018CE190E040
:101C20000E94772570E060E080E290E00E948325CA
:101C300040E050E0BA0188E190E00E9477250E94E0
:101C4000C70D08950E94CF0D0895682F8EE090E093
:101C50000E94652508950E94D41D60933002709300
:101C60003102809332029093330260932C0270937E
:101C70002D0280932E0290932F02089508950895C7
:101C80000E943F0E089508950E94430E089585E135
:101C900091E10E94431C0E943E0E0E94400E089556
:101CA0000E94E1120895089508950E94530E0E9423
:101CB000540E08950E9418110E94150408950E9460
:101CC000BF1D0E94D5100E94FC120E9442120E9469
:101CD0005A0E0E9476170E9406130E94440E089521
:101CE000AAE0B0E0E6E7FEE00C94FE240E94651254
:101CF00080E2A82E82E0B82E750110E0F701019174
:101D00007F01812F0E943E111F5F1C3009F440C0EB
:101D10000817A1F38091340281FD0E9444110E94B2
:101D2000500EC82E10E0812F0E943E11082FF501A1
:101D300081915F01081731F1F12CEE24E394D02E4C
:101D4000D8268D2D8E21B1F0CC20A1F0FE821F83EC
:101D500091E0802F8E2109F490E098870E94C81DA1
:101D60008160782F9A8789874E815F8168858A850F
:101D70000E944104F394EE0CF6E0FF12E2CFF5016D
:101D8000319700831F5F1C3071F60E942B0E20C01C
:101D90000813C0CF0E94C81D8C0180911E02909133
:101DA0001F0208171907A1F08FEF89838A831B820E
:101DB0000E94C81D8160782F9D838C8349815A8140
:101DC0006B818D810E94410410931F0200931E02BB
:101DD0000E94E1120E947A160E9428042A96EAE0E4
:101DE0000C941A25CF93DF930E94F00FEC0181151C
:101DF00020E59207D0F5811530E4930708F086C0FE
:101E0000803E910518F58D3C910508F07DC0883A1B
:101E1000910570F4853A910508F06EC08130910506
:101E200001F10097F1F00497E0F4D0E0C0E019C0B0
:101E3000813C9105D0F7C85AD0E0CC0FDD1FC15AC4
:101E4000DE4F0990D881C02DD4640BC0811590421B
:101E500008F0A8C0C11581E0D80718F4C83ED10524
:101E600020F7CE01DF91CF910895803622E59207C9
:101E700010F5803432E5930708F052C08032924565
:101E800008F047C0C11582E5D80708F47DC02C2FA3
:101E90002695269540E2249F900111248C2F837073
:101EA000C1E0D0E002C0CC0FDD1F8A95E2F7C22B63
:101EB000D32BDD68D6CF803A22E5920760F48038D4
:101EC00032E5930708F441C0CF71D0E0DC2FCC2776
:101ED000C46FD06AC6CF803C42E5940708F449C07D
:101EE000C03E82E5D80708F0A0CFDC2FCC27CC2756
:101EF000DF71C06FD06AB5CFC55AD0E0CF56DE4F84
:101F0000C881D0E0D064ADCFD065ABCFDF70D06AF0
:101F1000A8CFCF71D0E0DC2FCC27C16FD06AA1CF82
:101F2000282F26952695277080E2289F900111245E
:101F30008C2F8370C1E0D0E002C0CC0FDD1F8A95EA
:101F4000E2F7C22BD32BDC688CCF282F2695269561
:101F5000277040E2249F900111248370C1E0D0E0FB
:101F600002C0CC0FDD1F8A95E2F7C22BD32BDA68B3
:101F700078CF8F710E949210C82FD0E0DC2FCC2731
:101F8000CC27DF71D0626DCF8C2F8F710E949210A1
:101F900035E0D695C7953A95E1F7CF709C2FEC01C7
:101FA000D0695FCF8D2F8F710E94921090E0982F93
:101FB000882788279F719C012C2BE901E3CF462FAE
:101FC0007C3030F4663020F4672F0E942E03089591
:101FD00090E080E008950E94DF0F0E94F20E0895C5
:101FE00082389105B9F1B0F48133910509F47DC0CF
:101FF00048F48932910509F46DC08A32910509F4DB
:102000007BC008958533910509F45FC0893391053C
:1020100009F10895833E9105D9F138F4803E910588
:1020200029F1823E910579F10895863E9105D9F115
:10203000873E910509F43EC0843E910541F520910B
:10204000890221FF24C08091880284FD19C087EE97
:1020500090E0089520918802237009F05AC02091E1
:10206000890223FF14C089E290E00895209188023C
:1020700020FD38C03091890230FF09C024FF43C0E1
:1020800090E080E008952091880222FDF7CF089526
:102090002091880222FD3AC03091890230FD39C07A
:1020A00024FFF5CFEDCF2091880223FFF0CF24FD50
:1020B000E7CFCDCF2091880223FD2EC03091890239
:1020C00031FFEECF84EE90E008952091880225FF45
:1020D000DECFC9CF2091880225FD21C02091890241
:1020E00023FFD5CF89E390E0D2CF2091880226FF4D
:1020F000CECF8AE290E008952091880226FFC7CFD4
:1021000081E390E0089583EE90E0089582EE90E000
:10211000089580EE90E0089586EE90E0089585E3BE
:1021200090E008959091880292FF06C0282F2871B0
:102130002830F9F4877F846093FF06C0282F287128
:102140002831F1F4877E84612091890220FF06C046
:10215000382F38713830D9F4877F816021FF06C06D
:10216000282F28712831D1F4877E816194FD877EE4
:102170000895282F24712430F9F68B7F8860DCCFF6
:10218000282F2471243101F78B7E8861DDCF382F11
:102190003171313019F78E7F8860E0CF282F21719F
:1021A000213121F78E7E8861E1CF10928402109256
:1021B000850210928602109287020895CF92DF92D4
:1021C000EF92FF926B017C010E94E11281110EC01F
:1021D0000E94D41DC61AD70AE80AF90AC0928402DE
:1021E000D0928502E0928602F0928702FF90EF90F3
:1021F000DF90CF9008950F931F930E94E1128823E0
:1022000029F00E94D41D1F910F9108950E94D41DA2
:1022100000918402109185022091860230918702FC
:10222000600F711F821F931FEECF80E00895089505
:102230000E94930D811102C00E94220E0E949E0DE9
:10224000809334020E94A80D9093890280938802A3
:102250000E9417110E94A30D90E00E9448088091EF
:10226000CE019091CF010E946908089508950E94BF
:102270003611089508950E943A110895E82FF0E06C
:10228000E956FD4F80810895089580EA8A95F1F717
:10229000089500C008950E944511089508950E9470
:1022A0004E110895A6E0B0E0E8E5F1E10C940225B6
:1022B0000E94E112F82E6091A302882309F440C025
:1022C00086E0E82E8E010F5F1F4FF8018E2D1192D0
:1022D0008A95E9F7862F90E0B80189569D4F0E94B4
:1022E00014138823B9F080918A0290E046E050E010
:1022F000B80189569D4F0E94412521E02093350267
:10230000892B91F4F12C0E9483038F2D2696E6E011
:102310000C941E25809135028823A1F3F8011192B7
:10232000EA94E9F710923502A0918A02B0E0A9562A
:10233000BD4F86E0F80101900D928A95E1F7E3CF59
:1023400070E069567D4F80918A0290E089569D4FDA
:102350000E949B130E944F11D8CFF894E82FE2956A
:10236000EF70F0E031A1282F2F7081E090E001C0E4
:10237000880F2A95EAF7982F9095932391A392A11D
:10238000892B82A3789408950F931F93CF93DF93A3
:10239000CAE9D1E089918F3F11F00E94AD1181E02F
:1023A000C03AD807B9F7C4E9D1E00AE911E0899148
:1023B0008F3F11F00E94AD110C171D07C1F7DF917F
:1023C000CF911F910F910895B0E0A0E0EAEEF1E106
:1023D0000C940025EC01D62E062F10E0C80186567D
:1023E0009E4F7C01FC0180818F3F09F444C0F8942A
:1023F000E82FE295EF70F0E091A18F7021E030E0DE
:1024000001C0220F8A95EAF7892F822B81A382A12E
:102410002095282322A378940E944911E4E9F1E051
:1024200031E0C12C21912F3F59F1A22FA295AF701D
:10243000B0E090968C9190E02F7002C095958795B2
:102440002A95E2F780FD1CC0832FC82A330F81E054
:10245000EA39F80739F7F70180818F3F11F00E94C0
:10246000AD1161E0C11001C060E08D2D0E944B11E3
:10247000C00FD11FC882CDB7DEB7E8E00C941C2591
:1024800080E0E3CF809102018091020196E081110A
:1024900090E09093A30286E0891B80938A020E94B9
:1024A000C4118CE0E7E9F2E0DF01982F1D929A95C4
:1024B000E9F7EBE8F2E0DF011D928A95E9F786E0A3
:1024C0000E94A3120E9480030895ACE0B0E0EBE606
:1024D000F2E10C9403258E010F5F1F4F8CE0F80191
:1024E00011928A95E9F7F12C6F2DC8010E94E41131
:1024F000F394F6E0FF12F8CF4CE050E0B8018BE81F
:1025000092E00E94412521E0009709F420E0892B08
:1025100041F08CE0F801ABE8B2E001900D928A95B1
:10252000E1F76091A30270E069567D4F46E08BE8C9
:1025300092E00E94A412182F0E945211812B2C9617
:10254000E5E00C941F250895CF92DF92EF92FF9261
:102550000F931F93CF936C017B01042F222349F02B
:1025600081E0809338020E94C81D909337028093C7
:102570003602C0913802C1110AC0C0E08C2FCF9141
:102580001F910F91FF90EF90DF90CF900895809171
:102590003602909137020E94E01D059770F310E01B
:1025A000A801B601C7010E944125892B41F0A8016D
:1025B000B601C7010E944E2510923802DFCFC0E05D
:1025C000FBCF80913B02811107C00E94CF2488235A
:1025D00051F081E080933B0281E090913B02913089
:1025E00009F080E0089582E080933B020E94CA24B3
:1025F000F3CF0E94E11208950E94F9128093020124
:102600000E94E11281110E944A1308950E94E11272
:10261000811102C00E944D13089581E090913C0207
:102620009A3008F080E008950F931F93CF93DF93C3
:10263000EC018B0180913C028A30B8F4B801CE01E4
:102640000E949813C82F811122C080913C028F3FB5
:10265000B9F40E94C81D90933A02809339028C2FDE
:10266000DF91CF911F910F91089580913902909140
:102670003A020E94E01D843F914000F7C0E0EFCF96
:102680008F5F80933C028A3020F7C1E0E8CF109240
:102690003C02E5CF0E94E11A08950E94E41A0895D1
:1026A000B0E0A0E0E6E5F3E10C9401257901C82F44
:1026B000880FDD0B41155105A9F0FE0193E0EE0FE7
:1026C000FF1F9A95E1F7ED5FFE4F81819281835C58
:1026D0009D4F208130E04217530708F49A01A90169
:1026E0000E944E25CE010E94CD1BD82E8823D1F00A
:1026F00001151105B9F083E0CC0FDD1F8A95E1F7D4
:10270000FE01ED5FFE4F438150E00417150708F40A
:10271000A801CD5FDE4F6C817D81635C7D4FC70179
:102720000E944E258D2DCDB7DEB7E7E00C941D2518
:102730000E948A1408950E94A1140895A4E0B0E0B4
:10274000E4EAF3E10C94042560915602709157027B
:1027500080915802909159020E94EF1D11E0643659
:1027600071058105910518F10E94FB106E5F7F4F86
:102770008F4F9F4F69837A838B839C8310E000E0A7
:1027800030E020E044E050E0BE016F5F7F4F82E028
:102790000E945013182F882351F00E94D41D60937B
:1027A0005602709357028093580290935902812FDA
:1027B0002496E4E00C942025B0E0A0E0E2EEF3E102
:1027C0000C94FE247C015B016A010E940D1301E060
:1027D00010E0882311F00AE010E0C1E0D0E0B5017C
:1027E000C701F6010995811104C021960C171D0738
:1027F0002CF4CDB7DEB7EAE00C941A25CC9F9001FB
:10280000CD9F300D300D112490E080E045E34A95D6
:10281000F1F70000019682179307C1F7E0CFA7E018
:10282000B0E0E5E1F4E10C94FE247B01C090A0014E
:10283000D090A10101E010E09E01295F3F4F50E0E0
:1028400040E070E060E080E00E945013182F882381
:1028500009F448C056018FEFA81AB80A60915202D5
:102860007091530280915402909155020E94EF1D85
:10287000643671058105910568F106E010E09E015E
:102880002F5F3F4F50E040E070E060E081E00E9449
:102890005013D82E66E070E0C5010E94771711E052
:1028A0009F81981310E01D2141F10E94D41D609377
:1028B000520270935302809354029093550286E023
:1028C000FE013196ACE4B2E001900D928A95E1F7F9
:1028D00011E013C066E070E0C5010E9477179F8188
:1028E0008913CBCF86E0F6013196DE011196019077
:1028F0000D928A95E1F71111E2CF86E0ECE4F2E067
:10290000D70101900D928A95E1F7812F2796EAE091
:102910000C941A250F931F93CF93DF93EC018B0137
:102920004FE054E10E94DC13882331F04EE953E17B
:10293000B801CE010E94DC13DF91CF911F910F915E
:1029400008950F931F93CF93DF93C091A001D0916F
:10295000A101CE01019626E0FB01DC0101900D9260
:102960002A95E1F766E070E00E94771788836F810F
:10297000788589859A8500914802109149022091B5
:102980004A0230914B02601771078207930751F09A
:10299000609348027093490280934A0290934B02DD
:1029A0000E94DE10DF91CF911F910F9108950E9438
:1029B000A51F0E945F0E0E94B21F08950E94B71FBC
:1029C0000E94700E0E94D11F08950E94611D0E94F6
:1029D0008B1F0E94470E0E94D7140E94DE140E9493
:1029E000550EFBCF8091620280FF0DC060911F01E8
:1029F00070E0660F771F6038710570F5611571051D
:102A000069F1862F089581FF07C060911F0184E05E
:102A1000689FB0011124EFCF60911F0182FD0AC0B1
:102A2000809161028823A9F020911E0160911F010D
:102A3000821710F088E0ECCF869FC001112433E0AC
:102A4000880F991F3A95E1F7622F70E00E94DC240D
:102A5000D2CF68E070E0D5CF8FE7089581E0089588
:102A60008091620280FF0CC060911C0170E075953E
:102A70006795759567956115710549F1862F0895DC
:102A800081FF06C060911C0170E075956795F3CFDA
:102A900060911C0182FD0BC0909160029923A1F00E
:102AA00060911B0180911C01961738F0682F70E02F
:102AB0006038710500F38FE70895899FC0011124E4
:102AC00070E00E94DC24F4CF61E070E0D7CF81E0B9
:102AD00008958D3C31F40E94F21481958093660232
:102AE00008958E3C19F40E94F214F8CF8F3C31F413
:102AF0000E94F2148195809365020895803D19F437
:102B00000E94F214F8CF893D29F40E943015809379
:102B1000670208958A3D21F40E9430158195F7CF10
:102B20008B3D31F40E9430158195809368020895A1
:102B30008C3D19F40E943015F8CF9FE2980F983021
:102B400070F4815D990B21E030E001C0220F8A957D
:102B5000EAF780916402822B8093640208958D3D90
:102B600031F48091620281608093620208958E3D0B
:102B700021F4809162028260F7CF8F3DB9F7809196
:102B800062028460F1CF409165028D3C59F48091DE
:102B9000660287FF0DC01092660241110BC01092B1
:102BA000610208C08E3C81F48091660218169CF385
:102BB000442381F08091670290916802892B09F08B
:102BC0005AC01092600208958F3C49F447FFF0CF3D
:102BD00010926502809166028111ECCFE0CF803DBA
:102BE00019F41416ACF3E4CF90916702893D29F4EF
:102BF0001916F4F610926702DBCF8A3D19F497FF9D
:102C0000D7CFF8CF909168028B3D29F497FFD0CFB2
:102C100010926802CDCF8C3D19F41916CCF3C8CFB1
:102C20009FE2980F983090F4815D990B21E030E09D
:102C3000B90102C0660F771F8A95E2F7CB01809534
:102C400090916402892380936402B2CF8D3D31F468
:102C5000809162028E7F80936202AACF8E3D21F422
:102C6000809162028D7FF7CF8F3D09F0A1CF8091D7
:102C700062028B7FF0CF08950E94C81D9C01909145
:102C8000650280916602982B21F030935F022093B9
:102C90005E029091670280916802982B21F0309338
:102CA0005D0220935C0283E692E00E946C1C089512
:102CB00086E0E3E6F2E0DF011D928A95E9F71092E3
:102CC000610210926002109262020895FC018281FA
:102CD00081110EC0838181110BC08481811108C0D4
:102CE00091E08581811101C090E0892F8170089564
:102CF00081E0FCCFA6E0B0E0E0E8F6E10C94052529
:102D000086E0E3E6F2E0DE01119601900D928A95ED
:102D1000E1F710926502109266021092670210921B
:102D200068028B819C81892B89F080915E02909151
:102D30005F020E94E01DAC01909161029923C9F1EC
:102D4000809120018417150608F440C08D819E8172
:102D5000892B91F080915C0290915D020E94E01DB0
:102D6000AC0190916002992309F471C080911D011A
:102D70008417150608F479C0BE016F5F7F4F83E6A4
:102D800092E00E94191D811105C083E692E00E9425
:102D9000661681110E943C1686E0FE013196A3E67C
:102DA000B2E001900D928A95E1F72696E3E00C944B
:102DB000212520915B028AE0289F9001112424178D
:102DC000350720F69F5F9093610202C09F3FD1F7C5
:102DD0001B81112359F00E94F2149FEF11160CF47D
:102DE00091E0899F802D1124809365021C8111231D
:102DF00059F00E94F2149FEF11160CF491E0899F94
:102E0000802D11248093660230916502332309F4EA
:102E10009DCF20916602222309F498CF45EB34031D
:102E2000C0011124992359F09093650245EB2403C6
:102E300090011124332339F03093660287CF81E06B
:102E400080936502F3CF81E0809366027FCF20916B
:102E50005A028AE0289F900111242417350708F0B0
:102E60008BCF9F5F9093600202C09F3FD1F71D817F
:102E7000112359F00E9430159FEF11160CF491E0C8
:102E8000899F802D1124809367021E81112359F0A0
:102E90000E9430159FEF11160CF491E0899F802D50
:102EA00011248093680230916702332309F464CFC0
:102EB00020916802222309F45FCF45EB3403C0015F
:102EC0001124992359F09093670245EB2403900154
:102ED0001124332339F0309368024ECF81E0809380
:102EE0006702F3CF81E08093680246CF0895FC012A
:102EF000680F791F8FEF91E3E617F70709F408953C
:102F00002191822728E030E087FF06C0880F8927BB
:102F100021503109C9F7F0CF880FFACFCF93DF9353
:102F2000EC01FB018281882309F4D2C09E01305755
:102F30002332310508F0B2C00E94A80D9093890297
:102F400080938802FE01E150F047E232F10520F45F
:102F5000E955FA4D0C94F0248091880281608093A9
:102F6000880293C0809189028860809389028DC015
:102F7000809188028260F3CF809188028460EFCFD5
:102F8000809188028860EBCF809189028160EDCFCB
:102F9000809189028260E9CF809188028061DFCFD1
:102FA000809188028062DBCF809188028064D7CFD5
:102FB0000E94F507809188028068D1CF80918802B5
:102FC0008C60CDCF809189028360CFCF80918802C1
:102FD0008E7FC5CF80918902877FC7CF809188027D
:102FE0008D7FBDCF809188028B7FB9CF8091880281
:102FF000877FB5CF809189028E7FB7CF809189027C
:103000008D7FB3CF809188028F7EA9CF8091880277
:103010008F7DA5CF809188028F7BA1CF0E94F5077D
:10302000809188028F779BCF80918802837F97CF92
:10303000809189028C7F99CF8091880282FB9927A9
:1030400090F921E0922790FB82F990FB83F987CFDA
:1030500080918902982F909591708E7F892B90FB9B
:1030600081F983CF90918802892F8F7B96FF8064AE
:1030700076CF0E94F50790918802892F97FB87F9F8
:1030800080586DCF81E00E94250E8091880290913A
:1030900089020E94AD0D0E94F50780E0DF91CF917B
:1030A000089580E0F0CF90918802892F8F7E94FF61
:1030B000806155CF90918802892F8E7F90FF81602B
:1030C0004ECF90918902892F877F93FF88604DCFE3
:1030D00081E0E4CF8B3109F465C040F58B3071F0AD
:1030E00078F4863009F447C020F4853059F180E047
:1030F0000895873009F448C08830C9F781E0089501
:10310000803109F45DC068F48E3089F79091340203
:10311000892F8B7F92FF84608093340282FD4CC0A4
:10312000EDCF863159F3893149F3E1CF8A3201F18C
:1031300060F48732B1F020F48E31C8F28D514CC06A
:103140008932A9F60E949503D9CF833440F48A339B
:1031500008F041C0853329F0883381F2C8CF833429
:1031600031F681E090E00E9448080E94F507C6CF42
:103170000E94220EC3CF80913402807F809334025C
:1031800081E080936C02089590913402892F8E7FA4
:1031900090FF81608093340280FDB0CF817F809367
:1031A0003402ACCF90913402892F8D7F91FF8260E1
:1031B0008093340281FFA2CF809134028160EFCFEF
:1031C00090913402892F877F93FF88608093340227
:1031D00083FDF2CF93CF895321E030E0A90102C0F3
:1031E000440F551F8A95E2F7CA01BDCF80E00895CC
:1031F0000E94F6180895CF93C82F80916C028130F9
:10320000B9F0882331F08230A1F110926C0280E095
:103210000DC00E94A50C8232D1F78C2F0E94F618A7
:1032200081111BC08C2F0E946A188170CF91089564
:103230000E94A50C823289F38C2F0E94F81881110C
:103240000AC0C43199F060F4CB3029F0C03169F77D
:1032500082E080936C0281E0E8CF81E090E0E5CFEE
:10326000C93221F0C833B9F380E0DFCF10926C028D
:10327000FBCFC93209F43FC0E8F4C431E1F128F4CE
:10328000C73009F45BC081E0D1CF82EE8C0F8A3069
:10329000D0F7CD51C0936B02C33009F446C0B0F5EE
:1032A000C13009F43FC080E291E0C230B1F1109228
:1032B0006B02E9CFC03509F452C0B8F48AE0CF34CC
:1032C00011F7E0916902F0916A023097E1F22081F2
:1032D000082E000C990B820F911D8F3F910509F06C
:1032E0000CF441C08FEF8083CECFC135D1F181E0A6
:1032F000C23539F39BCF80916B02882321F2109263
:103300006B0210926A0210926902BDCFC53099F02B
:1033100078F08BE191E0C63051F690936A02809389
:103320006902B1CF8BE592E0F8CF8FE191E0F5CF64
:103330008EE191E0F2CF8CE191E0EFCF10925B0251
:1033400084E180932001C0931F018CE380931E01D0
:1033500088E080931C0188E280931B0194CF86EF64
:10336000B0CF8FEFAECF97FFBECF10828CCFCF9371
:10337000DF93EB0186319C4711F50E94A50C9A81E1
:10338000992399F08A7A91E009F490E090936D0284
:10339000811109C089E20E947D0C0E94E60C80E048
:1033A000DF91CF91089585E3F6CF80916D02811171
:1033B00004C089E20E94850CF0CF85E3FBCF81E059
:1033C000EFCF0F931F93CF93DF93C42FD22FFC0126
:1033D00082818823C9F0409370020E94C81D909397
:1033E0006F0280936E0280E28C0F883040F4C770C9
:1033F00081E001C0880FCA95EAF70E949805DF9125
:10340000CF911F910F91089510917002141332C043
:1034100080916E0290916F020E94E01D883C9105A0
:1034200048F5C0E2CD0F1D17B9F080E2810F88305A
:1034300040F4177081E001C0880F1A95EAF70E94E6
:103440009F05C83048F481E09D2F977001C0880F18
:103450009A95EAF70E949805802F0E948F05C83040
:1034600070F6D77081E001C0880FDA95EAF70E9404
:103470009F05C5CF80E28C0F883008F6C77081E0C9
:1034800001C0880FCA95EAF7F2CF0F93DB0188518C
:103490009C4787309105A0F5FC01E753FA4D0C9449
:1034A000F02406E221EE41EE6AE17CE7CD010E94C4
:1034B000E11980E00F91089507E225EE45EE6BE1FA
:1034C0007CE7F4CF06E221EE40EE68E17CE7EECF48
:1034D00007E225EE44EE69E17CE7E8CF06E221EE63
:1034E00042EE6CE17CE7E2CF07E225EE46EE6DE1CD
:1034F0007CE7DCCF08E221E045EE6EE17CE7D6CF49
:1035000012968C91882319F010927002D3CF81E02B
:10351000D1CF8EE1489B02C08150E1F7489BFECF9E
:103520000895589880E28A95F1F7589A0895FC0119
:103530003BE03A95F1F798E020E080E031E040E1AF
:103540004A95F1F7880F489B02C08160232742E02B
:103550004A95F1F7000040E14A95F1F7915079F76B
:1035600090E19A95F1F799B132E03A95F1F70000C0
:1035700040E14A95F1F7917092272081920F908354
:103580000895A1E0B0E0E7ECFAE10C94022519827D
:103590008C017C01E60EF11C0E151F0541F481E043
:1035A0009981911180E02196E6E00C941E250E94FD
:1035B000891ACE0101960E94971AF80181938F0112
:1035C000EBCF509A589A08955098589AE89AE9E69D
:1035D000F0E080818C7F808308956150770B91E0CB
:1035E00001C0990F6A95EAF720E031E0911108C017
:1035F000222391F0589A80E28A95F1F7589808951D
:10360000492F482339F0589A232740E24A95F1F789
:103610009695ECCF5898F9CF5898EDCFFF920F932D
:103620001F93CF93DF93EC018C01060F111DC01780
:10363000D10729F4CDB7DEB7E5E00C941F25F9904A
:103640000E94911A68E08F2D0E94ED1AF0CF1F9210
:103650000F920FB60F9211240F931F932F933F9346
:103660004F935F936F937F938F939F93AF93BF938A
:10367000EF93FF93CF93DF930F92CDB7DEB719820D
:103680000E94891ACE0101960E94971A082F06956A
:1036900006950695282F22952570902F9570290F55
:1036A000922F937026952695920F9827977089816F
:1036B000982B09F05CC0043008F059C080E18A956D
:1036C000F1F7589A509A82E08A95F1F700C058981D
:1036D00088E0089F80011124D801AD5FBE4F169687
:1036E000ED91FC9117973097A9F06091A00170912E
:1036F000A10114962D913C911597260F371F119615
:103700008D919C911297680F791F13964C91139786
:103710008C910995F801ED5FFE4F6381662351F0AE
:103720002091A0013091A10184819581820F931F86
:103730000E940E1B0E94911A80E18A95F1F7589819
:103740005098589A80E18A95F1F7F801ED5FFE4FA5
:103750006081662351F02091A0013091A101818107
:103760009281820F931F0E94C11A0E94891A0F90A2
:10377000DF91CF91FF91EF91BF91AF919F918F9189
:103780007F916F915F914F913F912F911F910F9179
:103790000F900FBE0F901F9018950F931F93CF930C
:1037A000DF93EC0104970CF04CC0F894509A5898B1
:1037B00085E08A95F1F700009C2F969595708C2FE7
:1037C0008570980F892F83709695969523E0CC0F7E
:1037D000DD1F2A95E1F7980F8E01092B0E94911A9F
:1037E00000C068E0802F0E94ED1A80E18A95F1F711
:1037F0005098589A489B1EC087E090E048991CC09A
:10380000FE01ED5FFE4F63816623F9F02091A00178
:103810003091A10184819581820F931F0E94C11A6A
:10382000811113C0509A589A7894DF91CF911F91CB
:103830000F91089500C0DECF019729F4509A589A4D
:10384000789480E0F2CF00C0D9CF0E94891A80E23C
:103850008A95F1F75898509A80E18A95F1F7CD5FF3
:10386000DE4F6881662351F02091A0013091A101C3
:1038700089819A81820F931F0E940E1B0E94911AC8
:10388000789481E0D2CF9093A3018093A201089510
:10389000909377028093760208950E94E11281113D
:1038A00003C0809171020895E0917602F091770251
:1038B000309729F00190F081E02D0995089580E07E
:1038C0000895E0917602F0917702309721F002801E
:1038D000F381E02D09950895E0917602F091770249
:1038E000309739F022E0DC012C930480F581E02D43
:1038F00009950895A3E0B0E0E0E8FCE10C9406250A
:10390000209174023091750228173907A1F0909325
:10391000750280937402E0917602F09177023097FD
:1039200051F023E029839B838A830680F781E02D71
:10393000CE01019609952396E2E00C942225A3E09E
:10394000B0E0E5EAFCE10C9406252091720230918A
:10395000730228173907A1F09093730280937202C3
:10396000E0917602F0917702309751F024E02983BC
:103970009B838A830680F781E02DCE01019609950D
:103980002396E2E00C9422259C012E5F3F4FAC0170
:10399000485F5F4F80E02417350709F40895F90167
:1039A00091919F019923B9F38F5FF5CF662349F079
:1039B000FC01329608962191261729F0E817F9079D
:1039C000D1F780E0089581E008959C01FC013296D2
:1039D0009FEF80E04191461751F09F3F19F441114C
:1039E00001C0982F8F5F8630A9F79F3F09F4089593
:1039F000290F311D97FD3A95F90162830895FC0165
:103A0000329608962191261303C0DF0111971C926C
:103A1000E817F907B9F708950E94E51C08950E9478
:103A2000FF1C0895029626E0FC0111922A95E9F701
:103A3000089546E050E00E94412521E0892B09F4D9
:103A400020E0822F089508950E94231D089581117A
:103A500006C081E0809378020E94241D089582E0D0
:103A6000F9CF83E0809378020E94241D08950E947C
:103A7000271D089581E0809378020E94241D0895F7
:103A80000E943A1D0895089508950E94441D0895C6
:103A9000089508950E94431D0895CF930E94481DE4
:103AA0000E9465120E94491DC0E08C2F0E943E11A9
:103AB000811105C0CF5FCC30C1F7CF91089581E06F
:103AC000FCCF85B7806885BF85B7806885BF0895BE
:103AD0001F921FB61F9211248F939F93AF93BF9392
:103AE00080917902811113C08091A4029091A50266
:103AF000A091A602B091A7024196A11DB11D80938D
:103B0000A4029093A502A093A602B093A702BF912E
:103B1000AF919F918F911F901FBE1F90189580911C
:103B2000AC02843031F10E94F5031092790288E1F1
:103B300090E020E40FB6F894A895809360000FBE43
:103B40002093600083B7817F846083BF83B78160E7
:103B500083BF7894889583B78E7F83BF0FB6F89420
:103B6000A895809160008861809360001092600049
:103B70000FBE08950E94F5070E94FA03089582E09F
:103B800084BD93E095BD9AEF97BD80936E00089534
:103B90002FB7F8948091A4029091A502A091A6025B
:103BA000B091A7022FBF08952FB7F8946091A40297
:103BB0007091A5028091A6029091A7022FBF08954F
:103BC0009C014FB7F8948091A4029091A502A09116
:103BD000A602B091A7024FBF821B930B0895CF920C
:103BE000DF92EF92FF922FB7F894C090A402D0908A
:103BF000A502E090A602F090A7022FBFA7019601B0
:103C0000261B370B480B590BCA01B901FF90EF90E7
:103C1000DF90CF90089578941F921FB61F921124C1
:103C20008F939F93AF93BF938091A4029091A5022D
:103C3000A091A602B091A7020196A11DB11D80938B
:103C4000A4029093A502A093A602B093A702BF91ED
:103C5000AF919F918F911F901FBE1F90189587E77E
:103C600097E7909301088093000888E19AE00FB6E7
:103C7000F894A895809360000FBE90936000FFCFEA
:103C800088E19AE00FB6F894A895809360000FBE83
:103C900090936000FFCF8091820208959B01BA014A
:103CA0009091AC029430E9F48F708093E9009FEF1B
:103CB0008091E800915085FD06C085ED8A95F1F769
:103CC00000009111F5CF8091E80085FF0AC050E017
:103CD00040E0C9010E9443208091E8008E778093E4
:103CE000E800089543E050E0BC0182E00E944E1ECF
:103CF000089546E050E0BC0182E00E944E1E089507
:103D0000CF93DF93EC0148E050E0BC0181E00E94DA
:103D10004E1E88E0FE01AAE7B2E001900D928A955E
:103D2000E1F7DF91CF9108958091AB02811109C035
:103D30000E94D3210E9430228091E200846080930F
:103D4000E20008951092AB0208950E943A1D089572
:103D50006091A80281E0611101C080E00E94311DE4
:103D600008959091AC0281E0943009F080E0609178
:103D7000A8020E94371D089542E061EC81E00E9494
:103D80004F2142E261EC82E00E944F219091AC020F
:103D900081E0943009F080E06091A8020E94271D24
:103DA00008958091AE02833009F461C030F481300F
:103DB000D1F1823009F49EC008958A3009F48AC096
:103DC0008B3009F46FC0893009F050C08091AD028A
:103DD000813209F04BC08091B1029091B2020297FA
:103DE00008F044C08091E800877F8093E8008091CC
:103DF000E80082FF37C09091F3008091F2000297B3
:103E000031F48091F100813011F0863021F48091FD
:103E1000F100809382028091E8008B778093E80024
:103E20000E94832123C08091AD02813AF9F48091F0
:103E3000E800877F8093E8008091B1029091B20200
:103E4000892B61F468E08AE792E070E00E9492209A
:103E50008091E8008B778093E800089560E090E01F
:103E600080E0F3CF8091AC028111C1CF08958091A1
:103E7000AD02813AD9F78091B1029091B202892BBB
:103E8000A9F78091E800877F8093E8008091E8009F
:103E900080FFFCCF809129018093F1008091E800A0
:103EA0008E77BCCF8091AD02813201F78091B10253
:103EB0009091B202892BD1F68091E800877F8093A0
:103EC000E8000E9483218091AF02809329010E9423
:103ED000F50708958091AD02813241F68091E800A6
:103EE000877F8093E8000E9483218091B0028093B5
:103EF000830208958091AD02813A09F0B7CF809195
:103F0000E800877F8093E8008091E80080FFFCCF85
:103F100080918302C1CF84B7877F84BF0FB6F894A6
:103F2000A895809160008861809360001092600085
:103F30000FBE80E890E00FB6F894809361009093F4
:103F400061000FBE0E94401D08950E94D3210E946F
:103F50003022E2EEF0E080818460808378940E94D9
:103F6000AF24089581E291E00E94481C0895809159
:103F7000AC02853031F48091AC02853019F00E949A
:103F8000BA1D08950E948F1D8091AA02882399F37B
:103F90000E944D1D882379F30E942D200E94F50771
:103FA000EACF08950E94D51F0895292F3327233083
:103FB000310519F168F42130310509F444C022308B
:103FC000310509F445C090E080E030E020E025C0F4
:103FD0002132310549F122323105A9F780E490E020
:103FE00026EA35E061157105C1F08BE790E02BE220
:103FF00035E06130710589F0E6CF99278130910570
:1040000081F0009729F00297F1F6ECE9F4E002C0A4
:10401000EAEDF4E0849190E09F01FA01318320837E
:104020000895EAECF4E0F6CF89E090E020EF34E088
:104030006115710591F389E090E029E035E0613088
:10404000710559F3C0CF82E190E029E135E0E5CF79
:104050008BE390E02EED34E0E0CF80E189BD82E19A
:1040600089BD09B400FEFDCF8091D8008F7D80937B
:10407000D8008091E00082608093E0008091E000B1
:1040800081FDFCCF0895AF92BF92CF92DF92FF9255
:104090000F931F93CF93DF936C01EB018A010E9472
:1040A000A221F82E811123C00115110539F0F80164
:1040B00080819181C81BD90BC80ED91EB12CA12CAF
:1040C0002097A9F08091E80085FD22C08091E8004A
:1040D0008E778093E80001151105A1F0F801808129
:1040E0009181A80EB91EB182A08285E0F82E8F2D95
:1040F000DF91CF911F910F91FF90DF90CF90BF90F4
:10410000AF9008950E94A2218823D1F2F82EEFCF1C
:10411000F60181916F018093F1002197FFEFAF1AB3
:10412000BF0ACECFFC018091B3029091B4028617F2
:104130009707A0F06115710529F49091E8009E772A
:104140009093E80090E06115710551F4911108C059
:104150008091E80082FF34C080E00895BC01F2CF76
:104160008091AC028823C1F18530C1F18091E800D3
:1041700083FD30C08091E80082FDEACF8091E800A5
:1041800080FFE1CF8091F3002091F200382F61157C
:10419000710519F02830310558F091E028303105CB
:1041A00009F090E02091E8002E772093E800CBCF33
:1041B00081918093F100615071092F5F3F4FE7CFEC
:1041C0008091AC02882341F0853041F08091E80075
:1041D00083FFBECF81E0089582E0089583E00895D3
:1041E000FC018091B3029091B40286179707A0F06A
:1041F0006115710529F48091E8008E778093E800BD
:1042000090E06115710551F4911108C08091E800AA
:1042100082FF35C080E00895BC01F2CF8091AC02EE
:104220008823C9F18530C9F18091E80083FD31C050
:104230008091E80082FDEACF8091E80080FFE1CF25
:104240008091F3002091F200382F6115710519F06B
:104250002830310558F091E02830310509F090E020
:104260008091E8008E778093E800CBCF8491809393
:10427000F1003196615071092F5F3F4FE6CF809179
:10428000AC02882341F0853041F08091E80083FF43
:10429000BDCF81E0089582E0089583E00895982FCE
:1042A000973028F08F708093E90081E00895909313
:1042B000E900242F762F50E0981731F07091EC0030
:1042C0002091ED005091F00021FD02C09F5FE8CFEA
:1042D0003091EB003E7F3093EB003091ED003D7F5D
:1042E0003093ED003091EB0031603093EB00709330
:1042F000EC002093ED005093F0002091EE0027FD9C
:10430000E5CF80E008958091AD0287FF13C08091D2
:10431000E80082FF06C08091E8008B778093E80078
:1043200004C08091AC028111F2CF08958091AC025B
:104330008823D9F38091E80080FFF8CF8091E800CE
:104340008E77ECCF2091E4003091E50095E6A9014D
:104350002091EC00822F817020FF06C08091E80040
:1043600080FF06C080E008952091E80022FD1AC079
:104370008091AC02882389F0853089F08091EB0030
:1043800085FD0FC02091E4003091E50042175307EE
:10439000F9F29150E1F684E0089582E0089583E017
:1043A000089581E008950E9442220E944A22E0EE90
:1043B000F0E0808181608083E8EDF0E080818F779C
:1043C000808319BCA7EDB0E08C918E7F8C938081A7
:1043D0008F7E80831092AB0208950F931F93CF932B
:1043E000DF930E9442220E944A22C8EDD0E08881D9
:1043F0008F77888388818068888388818F7D888390
:1044000019BC1092AC021092A8021092AA0210924B
:10441000A90200EE10E0F80180818B7F8083888103
:104420008160888342E060E080E00E944F21E1EEFD
:10443000F0E080818E7F8083E2EEF0E08081816019
:104440008083808188608083F80180818E7F808373
:10445000888180618883DF91CF911F910F910895AA
:10446000E8EDF0E080818F7E8083E7EDF0E08081F1
:104470008160808384E082BF81E08093AB020E94F0
:10448000ED210895E8EDF0E080818E7F8083109229
:10449000E20008951092DA001092E10008951F9250
:1044A0000F920FB60F9211242F933F934F935F9368
:1044B0006F937F938F939F93AF93BF93EF93FF93EC
:1044C0008091E10082FF0BC08091E20082FF07C073
:1044D0008091E1008B7F8093E1000E94AE24809167
:1044E000DA0080FF19C08091D80080FF15C080914C
:1044F000DA008E7F8093DA008091D90080FF96C029
:1045000080E189BD82E189BD09B400FEFDCF81E073
:104510008093AC020E94941E8091E10080FF19C03C
:104520008091E20080FF15C08091E2008E7F809331
:10453000E2008091E20080618093E2008091D800E7
:1045400080628093D80019BC85E08093AC020E9401
:10455000A81E8091E10084FF2BC08091E20084FFBF
:1045600027C080E189BD82E189BD89B5982F91700E
:1045700080FFFBCF8091D8008F7D8093D800809101
:10458000E1008F7E8093E1008091E2008F7E809336
:10459000E2008091E20081608093E2008091A802B5
:1045A000882309F449C084E08093AC020E94B11EC4
:1045B0008091E10083FF29C08091E20083FF25C044
:1045C0008091E100877F8093E10082E08093AC02DC
:1045D0001092A8028091E1008E7F8093E10080918B
:1045E000E2008E7F8093E2008091E2008061809300
:1045F000E20042E060E080E00E944F218091F00004
:1046000088608093F0000E94A51EFF91EF91BF91FA
:10461000AF919F918F917F916F915F914F913F915A
:104620002F910F900FBE0F901F90189519BC1092EC
:10463000AC020E94A21E70CF8091E30087FD93E040
:104640009093AC02B3CF1F920F920FB60F9211242A
:104650002F933F934F935F936F937F938F939F938A
:10466000AF93BF93CF93DF93EF93FF93D091E90084
:10467000DF708091EC00C82FC17080FDC0E81092FF
:10468000E9008091F000877F8093F00078940E9489
:1046900067231092E9008091F00088608093F00019
:1046A000CD2BCF70C093E900FF91EF91DF91CF91B7
:1046B000BF91AF919F918F917F916F915F914F913A
:1046C0003F912F910F900FBE0F901F901895AAE267
:1046D000B0E0EDE6F3E20C9405258DEA92E020913E
:1046E000F100FC012193CF01F2E0853B9F07B9F770
:1046F0000E94D11E8091E80083FF1EC18091AD020F
:104700009091AE029A3008F017C1E92FF0E0E05323
:10471000FA4D0C94F024803899F0823809F00CC1DD
:104720008091B1028F70873008F006C18093E90054
:104730008091EB0085FB882780F91092E90006C084
:104740008091A9029091AA02911182609091E80053
:10475000977F9093E8008093F1001092F100809190
:10476000E8008E77E5C0882309F4D3C0823009F0D1
:10477000E3C08091AF028111D6C08091B1028F70E9
:104780002FEF280F263008F0D7C08093E900209142
:10479000EB0020FFC8C0933031F48091EB008062C1
:1047A0008093EB00C0C09091EB0090619093EB0080
:1047B00021E030E001C0220F8A95EAF72093EA0059
:1047C0001092EA008091EB008860EACF8111B4C0BA
:1047D0001091AF021F778091E3008078812B809346
:1047E000E3008091E800877F8093E8000E948321A6
:1047F0008091E80080FFFCCF8091E3008068809387
:10480000E30082E0111183E08093AC0295C08058F0
:10481000823008F091C08091AF029091B0028C3D3F
:1048200023E09207A1F583E08A838AE289834FB768
:10483000F894DE01139620E03EE051E2E32FF0E031
:1048400050935700E49120FF03C0E295EF703F5F63
:10485000EF708E2F90E0EA30C0F0C7968D939D9355
:104860002F5F243159F74FBF8091E800877F8093F5
:10487000E8006AE270E0CE0101960E9492208091E9
:10488000E8008B778093E80057C0C096E7CF60912F
:10489000B1027091B202AE014F5F5F4F0E94D21F12
:1048A000BC01892B09F448C09091E800977F909350
:1048B000E80089819A810E94F020E1CF8038E1F5FB
:1048C0008091E800877F8093E8008091A802809320
:1048D000F10045CF811130C09091AF02923060F568
:1048E0008091E800877F8093E8009093A8020E945F
:1048F00083218091A802882311F084E005C0809173
:10490000E30087FDFACF81E08093AC020E94BC1ED9
:1049100013C08091AF02813079F481E0933009F0C7
:1049200080E08093AA021092E9008091E800877FDE
:104930008093E8000E9483218091E80083FF0AC0F1
:104940008091E800877F8093E8008091EB0080628F
:104950008093EB00AA96E3E00C9421250895CF9371
:104960008091AC028823A1F0C091E900CF709091B2
:10497000EC00892F817090FD80E8C82B1092E9002F
:104980008091E80083FD0E946723CF70C093E90007
:10499000CF9108950E94D3211092AC020895E8EDC2
:1049A000F0E08081806180838AE18A95F1F700C020
:1049B0008091D9008170089597FB072E16F400941A
:1049C00007D077FD09D00E942D2507FC05D03EF4C5
:1049D000909581959F4F0895709561957F4F0895AB
:1049E000EE0FFF1F0590F491E02D09942F923F9256
:1049F0004F925F926F927F928F929F92AF92BF92EF
:104A0000CF92DF92EF92FF920F931F93CF93DF939A
:104A1000CDB7DEB7CA1BDB0B0FB6F894DEBF0FBEF7
:104A2000CDBF09942A88398848885F846E847D8444
:104A30008C849B84AA84B984C884DF80EE80FD8046
:104A40000C811B81AA81B981CE0FD11D0FB6F894BC
:104A5000DEBF0FBECDBFED010895AA1BBB1B51E108
:104A600007C0AA1FBB1FA617B70710F0A61BB70BDE
:104A7000881F991F5A95A9F780959095BC01CD0183
:104A80000895FB01DC0104C08D910190801921F48F
:104A900041505040C8F7881B990B0895FB01DC0179
:104AA00002C001900D9241505040D8F70895F999F5
:104AB000FECF92BD81BDF89A992780B50895A8E1EF
:104AC000B0E042E050E00C948B25262FF999FECF00
:104AD00092BD81BDF89A019700B4021639F01FBA51
:104AE00020BD0FB6F894FA9AF99A0FBE089503966E
:104AF000272F0E9466250E946525252F0E94662586
:104B0000242F0C9466250196272F0E9466250C946D
:104B10006525DC01CB01FC01F999FECF06C0F2BD91
:104B2000E1BDF89A319600B40D9241505040B8F76B
:104B30000895F894FFCFE105E10512061206A406D8
:104B4000C00641064106C506360745074507E61774
:104B50005A18EE17B817BC17F217C017F617021835
:104B6000CC175318D0170618D4170A183218D817AC
:104B70000E183918DE1714181C18C417FA17C8179E
:104B8000FE17E2171818281842185118B217EA171A
:104B90006118621A681A511A5C1A6E1A741A7A1A13
:104BA0008B23B3239C24B3239C24E62307249C2437
:044BB0005E246A24F1
:104BB40014020100000001000000000000000601D2
:104BC40000000004070000000000002808503C0713
:104BD400144B1E801E791E721E01E200E900EA00D9
:104BE400B500B600B700CD008301CC008A01920164
:104BF40094012102230224022502260227022A020A
:104C0400B300B4006F0070009F01CB01818283E286
:104C140000E900EA00B500B600B700CD008301CC7E
:104C2400008A019201940121022302240225022612
:104C34000227022A02B300B4006F0070009F01CB68
:104C440001818283946697C63435F6F73133323660
:024C54003D021F
:00000001FF
