:100000000C94F3020C94B81B0C9410030C94100382
:100010000C9410030C9410030C9410030C94100314
:100020000C9410030C9410030C9400230C94D42310
:100030000C94DB1D0C9410030C9410030C9410030F
:100040000C9410030C9410030C9410030C941003E4
:100050000C9410030C947E1E0C9410030C9410034B
:100060000C9410030C9410030C9410030C941003C4
:100070000C9410030C9410030C9410030C941003B4
:100080000C9410030C9410030C9410030C941003A4
:100090000C9410030C9410030C9410030C94100394
:1000A0000C9410030C9410030C94100329001E00F0
:1000B0001F002000210022002B00330036003700F3
:1000C00013001C00E10004001200080018000C00DE
:1000D000E000340014000D000E001B0000000000C2
:1000E0003500380002512C00000000002A00650095
:1000F0002B004A00230024002500260027002A00A8
:1001000009000A00060015000F002E0007000B0072
:100110001700110016002D00050010001A0019002C
:100120001D00E500280003513100E400000000003C
:100130004D004C00E300E20000000000010001005F
:100140000100010001000100010014001A00080074
:1001500015001700010004001600070009000A003E
:1001600001001D001B000600190005000000000032
:100170000100010001000100000000000100010079
:100180000100010001000100010001000100010067
:100190001C0018000C00120013002E000B000D00B4
:1001A0000E000F003300340011001000360037003D
:1001B00038002D00010001000100010000000000D6
:1001C00001000100010001000000000035021E02D4
:1001D0001F0220022102220201004A004B004E00B1
:1001E0004D00260201005009070837084F092F0269
:1001F0000100B200B600B700B3002F0000000000FD
:100200000450010001000100000000000100010095
:100210000100010023022402250254000000000016
:1002200027025F00600061005600000030025C00A1
:100230005D005E0057000000300059005A005B006E
:100240006700000001000050620063000000000031
:1002500001000100010001000000000045003A001B
:100260003B003C003D003E00010000000000520049
:100270000000260201000000500051004F002F0234
:10028000010000000000000000002F00000000003E
:100290000100010001500100000000000100010008
:1002A000010001003F0040004100420043004400C3
:1002B00027020654000000000000A8003002AC0035
:1002C000AE00AB000000A9003000000000000000FC
:1002D0000000AA00010001005300470000000000D8
:1002E0000100010001000100000000001E001F00CD
:1002F00020002100220023002B00170014001A0008
:1003000008001500E1000A000400160007000900BB
:10031000E00005001D001B000600190000000000A1
:10032000010001000351010000000000E200E300B1
:1003300028000551000000000000000000000050EF
:1003400000000000000000000000000000000000AD
:10035000000000000000000000000000000000009D
:10036000000000000000000000000000000000008D
:1003700000000000000000000000000029003A001A
:100380003B003C003D003E002B0059005A005B0042
:100390005C005D00E1005E005F00600061006200E3
:1003A000E0000D000E000F00100011000000000022
:1003B0001300120000000000000000000000000018
:1003C00000000000000000000000000000000050DD
:1003D000000000000000000000000000000000001D
:1003E000000000000000000000000000000000000D
:1003F00000000000000001000000000000000000FC
:10040000000000000000000000000000005C000090
:10041000000000000000DF5C0000000000000000A1
:1004200000000000000000000000000000000000CC
:1004300000000000000000000000000000000000BC
:1004400000000000000000000000000000000000AC
:10045000000000000000000000000000000000504C
:10046000000000000000000000000000000000008C
:10047000000000000000000000000000000000007C
:10048000000000000000000000000000000000006C
:100490000000000000000000000000002C034400E9
:1004A00061006300740079006C002D004D00610054
:1004B0006E00750066006F0072006D00200028005D
:1004C000350078003600290000000E037400730028
:1004D00068006F0072007400000004030904090240
:1004E0003B00020100A0FA09040000010301010021
:1004F00009211101000122400007058103080001C4
:10050000090401000103000000092111010001227A
:100510007B00070582032000011201000200000099
:10052000084D44363501000102000105010902A110
:100530000185020901A100050919012908150025F5
:1005400001950875018102050109300931158125E0
:100550007F95027508810609381581257F950175FB
:10056000088106050C0A38021581257F950175085A
:100570008106C0C005010980A101850319012AB7C0
:1005800000150126B700950175108100C0050C0902
:1005900001A101850419012AA002150126A00295D6
:1005A0000175108100C005010906A101050719E0C8
:1005B00029E7150025019508750181029501750847
:1005C00081010507190029FF150026FF0095067512
:1005D0000881000508190129059505750191029505
:1005E0000175039101C011241FBECFEFDAE0DEBF19
:1005F000CDBF11E0A0E0B1E0E4ECFCE402C0059066
:100600000D92AE39B107D9F722E0AEE9B1E001C0F1
:100610001D92A43BB207E1F70E94D6140C944A261F
:100620000C94000081E0089581E008950E94140375
:10063000089508950E9419030895A5E0B0E0E3E24B
:10064000F3E00C94B62549835A833091A501898142
:100650009A81311119C0662399F0222389F00E94F2
:100660001509182F682F89819A810E94F1086981E4
:100670007A81812F0E94C10F2596E3E00C94D22548
:100680000E940309182FF3CF0E94150969817A810E
:10069000F1CFFC01262F40815181628173818481D9
:1006A0000E941D03089581E00895CF93DF93EC012C
:1006B00060E00E944903BE010E941A03DF91CF91BE
:1006C00008950E94281108950E942C1108950895FC
:1006D0000E94BC070E9467032FEF84E39CE0215037
:1006E00080409040E1F700C0000008950E94680338
:1006F0000E94A21E08950E9468030E94B31E0895DE
:100700000F931F93CF93DF938C0161E00E94490305
:10071000EC01B8010E941603811106C080E0DF9150
:10072000CF911F910F910895B801CE010E94C81A70
:100730008823A1F3B801CE010E947F17882371F3AB
:10074000B801CE010E943A1A882341F3F801828150
:10075000882361F0CB35FDE5DF0701F158F4C115C1
:10076000ECE5DE0791F0CF3DDC4591F0C8010E9439
:100770001203D5CFCD358DE5D80769F090F0C83A92
:10078000DD45A1F70E947B03C9CF0E947603C6CF47
:100790000E94000EF7CF0E94450DE8CF0E944F0D3A
:1007A000E5CF0E94530DE2CF0E94B81D0E94F103D5
:1007B00008950E94F5030E94BD1D089508950E94AA
:1007C000DE03089581E008950E94E20308950895EC
:1007D000CF93C82F0E94DF038C2F0E94E403CF9198
:1007E000089580E00E94E80308950E94DE1C0E94A4
:1007F000E8030895CF930E94DE1CC82F8091A001CA
:100800008C1779F0C093A0010E94471E6093A1014C
:100810007093A2018093A3019093A4018C2F0E9456
:10082000E803CF910895ABE0B0E0E9E1F4E00C9487
:10083000B7254F83588769877A878B8761110E9414
:10084000900C1E821D8285E0FE013796DE01119616
:1008500001900D928A95E1F78C819D81892B61F43D
:1008600049815A816B817C818D819E810E94B90B67
:100870002B96E2E00C94D32589819A8189238F3FBE
:1008800079F3CE0101960E9453038111E9CFF0CF95
:10089000FC01808191810E9447090895CF93C82F60
:1008A0008823C9F08238C9F40E94DE1C81FD13C080
:1008B00089E30E94480C0E94B10C2FEF87EE93E071
:1008C000215080409040E1F700C0000089E30E9481
:1008D000500C0E94B10CCF9108958338A1F40E946E
:1008E000DE1C80FDF8CF83E50E94480C0E94B10C0D
:1008F0002FEF81EE94E0215080409040E1F700C05E
:10090000000083E5E4CF8438A1F40E94DE1C82FD60
:10091000E2CF87E40E94480C0E94B10C2FEF81EED9
:1009200094E0215080409040E1F700C0000087E44F
:10093000CECF8CEF8C0F813AB8F48C2F0E947E19A9
:100940008111C9CF6C2F80910001909101010E940B
:10095000491D882329F08C2F0E94500C0E94B10C55
:100960008C2F0E94480CB5CF80E28C0F883048F461
:10097000C77081E001C0880FCA95EAF70E94730C26
:10098000A8CFEBE5EC0FE33040F4F0E0E45AFE4F83
:10099000808190E00E940B1D9ECFE8E5EC0FE731CF
:1009A00050F4F0E0EE0FFF1FE25DFE4F8081918179
:1009B0000E94211D90CFCD3E08F48DCF8C2F0E9438
:1009C0005A150E942D1687CF882309F455C0823806
:1009D00079F40E94DE1C81FF4FC089E30E94480C1D
:1009E0000E94B10C89E30E94500C0E94B10C089542
:1009F000833859F40E94DE1C80FF3EC083E50E94CC
:100A0000480C0E94B10C83E5EECF843859F40E9463
:100A1000DE1C82FF31C087E40E94480C0E94B10CAA
:100A200087E4E1CF9CEF980F913AE8F290E2980FBB
:100A3000983050F4877091E001C0990F8A95EAF7D9
:100A4000892F0E94790CD1CF9BE5980F933028F421
:100A500090E080E00E940B1D089598E5980F973173
:100A600028F490E080E00E94211D08958D3E20F042
:100A70000E94B4150E942D1608951F93CF93DF9303
:100A8000182FEB010E944E04209739F4812F0E9409
:100A9000E404DF91CF911F9108958FE99FE00197C2
:100AA000F1F700C000002197EFCF70E060E08933DC
:100AB00011F460E570E00E943D050895882321F05F
:100AC0000E94730C0E94B10C0895882321F00E94AB
:100AD000790C0E94B10C0895B0E0A0E0E2E7F5E0E7
:100AE0000C94B0256C01D62FC72FFC011281F58024
:100AF000F2949FE0F9220E94690CE82E8823B9F055
:100B0000E12E1123A1F08C2F807F803421F080E230
:100B10008D0F8830D0F08091880282FF16C082E06D
:100B20000E94140D0E94690C91E0E82EE926BC2E6B
:100B3000B2948FE0B822FBE0FB1508F468C0EB2DFF
:100B4000F0E0E45BF94D0C94A125E12CF0CF0C2FE3
:100B50000F70C07F11F00295007F112399F00023E0
:100B600059F080E28D0F883010F0D11107C0802F2E
:100B70000E94730C0E94B10C8D2F41C0802F0E94E7
:100B8000830CF8CF8D2F0E94E404002309F43FC0AA
:100B900080E28D0F883010F0D11104C0802F0E94A8
:100BA000790C03C0802F0E94890C0E94B10C2FC0C9
:100BB0000C2F0F70C07FC03211F00295007FDD2333
:100BC00081F0D13009F463C0112309F46DC0FF2016
:100BD00009F463C0F601858180FFCECF8F708583D5
:100BE0005CC08091880282FD33C0112359F000233C
:100BF00029F0802F0E94730C0E94B10C80E00E94AB
:100C00004E0405C080E00E94E4040111C7CFEB2D23
:100C1000E850FF0B349720F40E94DE1C0E94E8038A
:100C2000EE2089F00E94650C80FD0DC0F601128255
:100C30000E945F0C0E944F08C6010E947C070E9420
:100C40005F0C0E945F08CDB7DEB7E9E00C94CC25BD
:100C5000112389F0F11006C00E94930C802B0E9492
:100C60005E05D5CF21E0F212F7CF0E94930C802BC6
:100C70000E949A0CCCCFF11006C00E94A70C802FC6
:100C80000E946505C4CF31E0F31609F2F6CF1123B7
:100C900031F085E08F1508F4BACF802FE0CF94E0D3
:100CA0009F1508F4B4CFEBCFFF2049F3D93349F4B3
:100CB000FFEF27EE33E0F15020403040E1F700C075
:100CC00000008D2F0E94E404A2CF8C2F869586957C
:100CD000837069F0813009F09ACF8D2F9C2F93702B
:100CE000111102C090E080E00E94211D90CF8D2F55
:100CF0009C2F9370111102C090E080E00E940B1DA8
:100D000086CF8D2F112329F00E945A150E942D168F
:100D10007ECF0E94B415FACF8C2F8370A1F51111EC
:100D200076CF4D2F429546954770440F440F2D2F97
:100D30002F7030E0042E02C0220F331F0A94E2F716
:100D400090E080E0D4FF09C08FE090E002C0880FFF
:100D5000991F4A95E2F780959095C695C695C37000
:100D6000822B932BC23049F058F4C13019F00E9405
:100D70001D084DCF0E9414084ACF0E94260847CF75
:100D80000E94110844CF8695112311F08C2F817099
:100D9000882309F43CCF4D2F429546954770440F68
:100DA000440F2D2F2F7030E0042E02C0220F331F6E
:100DB0000A94E2F790E080E0D4FF09C08FE090E071
:100DC00002C0880F991F4A95E2F780959095C695C5
:100DD000C695C370822B932BC23049F058F4C130B2
:100DE00019F00E948A0813CF0E94810810CF0E9438
:100DF00093080DCF0E9435080ACFCF70112329F038
:100E00008C2F0E944F088D2F2ACF8D2F0E946505B1
:100E10008C2F0E945F08FBCED23F51F160F4D03F8F
:100E2000B9F0D13F81F0112309F449C0F110A4CEEB
:100E30008C2F8F7121C0D33F11F1D43FA1F7809146
:100E4000880282FD26C08C2F8F71112311F314C0EC
:100E5000112349F084E08F1508F4D9CE8C2F8F71BF
:100E60000E947108D4CE95E09F1508F4D0CEF6CF3D
:100E70008C2F8F711111CDCF0E944F08C8CE112336
:100E800029F08C2F8F710E944308C1CE0E943E082A
:100E9000BECE112349F0CF718C2F0E944F0863E022
:100EA0008C2F0E94F60CB3CE81E00E94140DE1E07D
:100EB000EF1508F0ACCE82E00E94140DA8CEF11020
:100EC000F5CE8C2F8F71A5CF0F931F93CF93DF9308
:100ED000EC01688179818A810E9452098C010E940B
:100EE0009C080E941008B801CE010E946C05DF9199
:100EF000CF911F910F910895CF93DF93EC018B81D8
:100F00009C81892B29F08881998189238F3F51F415
:100F1000DF91CF910895CE010E946407CE010E9417
:100F20005503F6CFCE010E9480038111F4CF0E94B9
:100F3000690C882369F38A81882351F380918802A0
:100F400082FFE6CF82E00E94140DE2CF90E080E0C5
:100F50000E940B1D90E080E00E94211D0E94900CD9
:100F60000E94B10C0E9449160E942D1608950E94FD
:100F7000580C0E94A60708950E94800C0E94B70793
:100F8000089592959F70963091F058F4925F9F70FB
:100F9000923058F4803F19F030F4883E30F481E00C
:100FA00008959A5FF4CF843FD1F380E00895883E9E
:100FB000B0F3813FD1F7F3CFFC0183819481892B7A
:100FC00029F08081918189238F3F11F480E0089579
:100FD000808191810E9447090E94C1070895A5E080
:100FE000B0E0E5EFF7E00C94B7252596E2E00C942D
:100FF000D325A6E0B0E0EFEFF7E00C94B7252696F6
:10100000E2E00C94D32508950E94030808950E94FD
:1010100004089093CD018093CC010E94A607089507
:1010200008950E94070808952091CC013091CD01C8
:10103000822B932B0E94070808952091CC013091B8
:10104000CD01822393230E94070808952091CC01AB
:101050003091CD01822793270E94070808950E94AE
:10106000030808950E942F0808950E943208909363
:10107000CB018093CA010E94A607089590E080E00A
:101080000E943508089521E030E0A90102C0440F14
:10109000551F8A95E2F7CA010E943508089521E09C
:1010A00030E002C0220F331F8A95E2F78091CA0117
:1010B0009091CB01822B932B0E943508089521E05B
:1010C00030E002C0220F331F8A95E2F72095309559
:1010D0008091CA019091CB01822393230E9435080D
:1010E000089521E030E002C0220F331F8A95E2F715
:1010F0008091CA019091CB01822793270E943508E5
:1011000008952091CA013091CB01822B932B0E942C
:10111000350808952091CA013091CB018223932391
:101120000E94350808952091CA013091CB01822791
:1011300093270E94350808950895262F277091E07F
:1011400001C0990F2A95EAF723E0769567952A95CD
:10115000E1F7660F771F660F771FFA01E60FF71F9B
:1011600050E040E0682F70E08191DF0111979B0112
:10117000042E02C0369527950A94E2F72170219536
:101180002827292328272C934F5F5F4F4430510590
:1011900059F70895A82FA77023E0969587952A956B
:1011A000E1F7880F991F880F991FFB01E80FF91FBE
:1011B00050E040E080E0219130E00A2E02C03695F8
:1011C00027950A94E2F721703327042E01C0220FDD
:1011D0000A94EAF7822B4F5F5F4F4430510559F76D
:1011E0000895262F9C3070F4863060F4682F70E0EC
:1011F00086E0989F600D711D112446EA51E0822F10
:101200000E949D080895292F9C3068F4863058F478
:1012100090E066EA71E036E0239F800D911D112475
:101220000E94CA08089580E00895B0E0A0E0EBE1D4
:10123000F9E00C94B0257C010091CA011091CB011A
:101240008091CC019091CD01082B192BCFE0D0E0FB
:10125000CC24C394D12CBC2EC6010C2E02C0880F06
:10126000991F0A94E2F780239123892B49F421974F
:1012700090F7B12C8B2DCDB7DEB7E9E00C94CC25DF
:10128000B7018C2F0E94DC0F019789F3F3CFCF9326
:10129000DF93EC010E941509BE010E94DC0FDF9173
:1012A000CF9108951F93CF93DF93EB019091A50108
:1012B000992339F0CB010E944709DF91CF911F910B
:1012C0000895882369F0CB010E941509182F682F13
:1012D000CE010E94F108BE01812F0E94DC0FEDCFEC
:1012E000CB010E940309182FF6CF1F93CF93DF93F2
:1012F000C091CE0116E08091CF018C1304C0DF9124
:10130000CF911F910895D0E01C9FF0011D9FF00D1B
:101310001124E053FE4F40815181628173818481A9
:1013200095810E94F9072196C770E5CF4091000290
:1013300050910102609102027091030280910402B7
:10134000909105020E94F90708952091CE01909195
:10135000CF0156E0291302C080E0089530E0529F8B
:10136000F001539FF00D1124E053FE4F718176136D
:1013700006C07081781303C07281741304C02F5F9C
:101380003F4F2770E7CF81E008951F93CF93DF93FE
:1013900080910502807F09F049C080910202882374
:1013A00009F444C08091CE01C091CF016091000248
:1013B00070910102A0910302B0910402D62FD723AD
:1013C00016E0C81799F190E0109711F0DF3F19F47B
:1013D00001968770F6CF189F9001199F300D112448
:1013E000F901E053FE4F41814713F2CF408146138C
:1013F000EFCF42814111ECCF438154814A1B5B0BFB
:10140000483C510528F7809105028F7080618093D8
:101410000502F901EB52FE4F80818F70806180835D
:1014200080E092E00E947C070E947509DF91CF91D5
:101430001F910895A1E1B0E0E0E2FAE00C94AD253F
:101440008C0185E0F801DE011D9601900D928A95D0
:10145000E1F7D8011296EC90129780E0A82E82E076
:10146000B82E40910302509104024115510509F430
:1014700061C19091000220910102892F82238F3F48
:1014800009F458C1CC901196DC90119713968D9069
:101490009C901497F0900202F401E41BF50BFF20DE
:1014A00009F4F6C080910502382F307FE83CF10541
:1014B00008F0B0C031117BC0FE2CD21217C09C11B5
:1014C00015C0E11013C08F708061809305020E94E7
:1014D0009609C5010E947C0780910502D8011596E6
:1014E0008C938F2D6196ECE00C94C92581149104A6
:1014F00029F08D2D8C218F3F09F038C180E080FFCD
:1015000015C04E2D6D2D8C2D0E94A509882371F0DC
:1015100080E092E00E947C0786E0E0E0F2E0DF01FC
:101520001D928A95E9F70E9496093FC081149104A3
:1015300029F08D2D8C218F3F09F015C180E0B82F47
:10154000B170AB2E80FF29C04E2D6D2D8C2D0E94C9
:10155000A509B82E811121C0CD86DE868D859E8598
:101560000E944709292F22952F70223050F02430F5
:1015700078F49F7051F0F8019581907F31F4FB2C45
:10158000B0CF9F7011F08823D1F3805E8830B8F31C
:10159000C8010E947C07BA2CF2CFEE2009F4A1CF3B
:1015A00080910502816080930502F12C9ACFD212BE
:1015B00005C09C1103C0EE2009F487C0C8010E9439
:1015C000DC07882319F1EE2009F1809105028032B1
:1015D00070F0209100023091010238872F83198624
:1015E0009B868A868C87CE0107960E947C0786E0C0
:1015F000F801A0E0B2E001900D928A95E1F70E9417
:10160000C5090E949609FF24F3946BCFC8010E947C
:101610007C07F9CF311112C0782D998A888AA601EA
:101620006E2D89890E94EF0780E092E00E947C077E
:1016300086E0F50111928A95E9F775CFD2120FC0B5
:101640009C110DC0E1100BC015968C93C8010E942F
:101650007C0786E0F50111928A95E9F742CFC8012F
:101660000E94DC07882391F2EE2081F2809105022E
:10167000803208F4BCCF20910002309101023A83FD
:1016800029831B829D828C828E83CE010196ADCFF1
:10169000E83CF10508F040C0FE2CEE2009F4B6CF7E
:1016A000D2122CC09C112AC08091050280FD1DC061
:1016B000982F907FD1F015968C931597903F39F025
:1016C000982F907F905F8F70892B15968C93C8010F
:1016D0000E947C0786E0F801A0E0B2E001900D9244
:1016E0008A95E1F70E949609FCCE86E0F801A0E019
:1016F000B2E001900D928A95E1F7F3CEC8010E9405
:10170000DC07811174CF809105028160809305020E
:10171000C8010E947C07E5CE782D998A888AA601A7
:101720006E2D89890E94EF0786E0F50111928A9556
:10173000E9F7D8CFEE2009F469CFC8010E94DC0791
:10174000F82E882309F462CF86E0F801A0E0B2E029
:1017500001900D928A95E1F780E092E00E944804A2
:101760000E94C509BFCF81E08E25E9CE81E08E259C
:10177000C6CEACE0B0E0EFEBFBE00C94B6254F83B7
:10178000588769877A878B879C87CE0107960E9446
:101790001A0A882369F08A859B85892B39F04F8145
:1017A0005885842F85238F3F09F06BC016E05FC0FA
:1017B00086E0FE013796DE01119601900D928A9522
:1017C000E1F78A859B85892B89F388859F81892309
:1017D0008F3F61F32091CF0130E0C90101968770FE
:1017E00099274091CE014817190671F40E94BC0751
:1017F0001092CF011092CE0186E0E0E0F2E0DF012E
:101800001D928A95E9F7D2CF96E0929FD001939FDF
:10181000B00D1124A053BE4FFE01319601900D92E0
:101820009A95E1F78093CF010E947509BFCF819F00
:10183000C001112480539E4F0E941A0A8823E9F0A8
:10184000E091CE011E9FF0011124E053FE4F408134
:10185000518162817381848195810E94F907809111
:10186000CE0190E00196877099278093CE018091F8
:10187000CE019091CF018913DACF2C96E3E00C943E
:10188000D22569857A858B859C850E94F9078ECF44
:10189000682F80910001909101010E947F1D0895A1
:1018A000682F80910001909101010E94821D08958E
:1018B00080910001909101010E94851D0895809101
:1018C0000E02859585958595089580910E02877005
:1018D000089590910E02977081E009F480E00895D8
:1018E00080911902089590911902892B8093190211
:1018F0000895809590911902982390931902089564
:1019000010921902089590911802892B8093180261
:101910000895809590911802982390931802089545
:1019200010921802089580910F02089508950E9460
:10193000960C08959091880292FF08C090910F0232
:10194000981721F080930F020E94970C08958091C0
:101950000F02882329F010920F0280E00E94970C5A
:101960000895CF93DF93E0910001F0910101809100
:1019700019028083E0910001F09101018081909132
:101980001802892B808390910F02992381F0E091B6
:101990000001F09101018081892B808380910001F9
:1019A000909101010E94371D81110E94A70CC091E6
:1019B0000001D091010148E050E066E072E0CE0104
:1019C0000E94F225892B59F088E0FE01A6E0B2E0E2
:1019D00001900D928A95E1F7CE010E94F21CDF91F1
:1019E000CF91089508950E94F20C08959091880275
:1019F00092FF11C098E0899F90011124622B60939F
:101A00000E020E944F0880910E028595859585955E
:101A10000E94F30C08950E944F08089510920E0240
:101A200080E00E94F30C089590910E028095892326
:101A300080930E02282F277091F4282F082E000C77
:101A4000330B9217130659F09091880292FF07C04A
:101A50008595859585950E945F080E940E0D0895D5
:101A60009091880292FB222720F9281769F080FBC9
:101A700092F99093880280918702909188020E9447
:101A80007A0D82E00E94140D08958091880282FBF5
:101A9000882780F991E089270E94300D089581E020
:101AA0000E94300D089580E00E94300D089590E06E
:101AB00080E00E94102621E0883E9E4F09F020E041
:101AC000822F089582E090E00E940826089583E026
:101AD00090E00E9408260895CF9384E090E00E9451
:101AE0000826C82F82E290E00E940826982F8C2FAB
:101AF000CF910895CF93C92F682F84E090E00E9482
:101B000016266C2F82E290E00E941626CF9108954F
:101B1000AB01BC018FE090E00E9428260895AB0144
:101B2000BC0183E190E00E942826089560E070E007
:101B3000CB010E948F0D089560E070E0CB010E9400
:101B4000880D0E94960D089568EE7EEF90E080E08B
:101B50000E94342660E082E090E00E94162660E059
:101B600083E090E00E9416261092CD011092CC01E5
:101B700060E084E090E00E94162664E082E290E05B
:101B80000E94162660E085E090E00E94162660E044
:101B900086E090E00E9416266FEF87E090E00E94BA
:101BA000162640E050E0BA0188E090E00E94282626
:101BB00060E08DE090E00E94162640E050E0BA011F
:101BC00088E190E00E94282660E087E190E00E9492
:101BD000162640E050E0BA018CE190E00E942826F1
:101BE00070E060E080E290E00E94342640E050E047
:101BF000BA0188E190E00E9428260E949C0D089579
:101C00000E94A40D0895682F8EE090E00E94162691
:101C100008950E94471E60932C0270932D028093BA
:101C20002E0290932F0260932802709329028093D2
:101C30002A0290932B020895089508950E941D0E84
:101C4000089508950E94210E089586E091E10E9472
:101C5000D41C0E941C0E0E941E0E08950E94D212D7
:101C60000895089508950E94310E0E94320E08953D
:101C70000E9409110E94E70308950E94321E0E94EB
:101C8000C6100E94ED120E9433120E94380E0E946C
:101C900067170E94F7120E94220E0895AAE0B0E092
:101CA000E4E5FEE00C94AF250E9456128CE1A82ECC
:101CB00082E0B82E750110E0F70101917F01812FBC
:101CC0000E942F111F5F1C3009F440C00817A1F3B8
:101CD0008091300281FD0E9435110E942E0EC82E87
:101CE00010E0812F0E942F11082FF50181915F01D3
:101CF000081731F1F12CEE24E394D02ED8268D2D47
:101D00008E21B1F0CC20A1F0FE821F8391E0802FC4
:101D10008E2109F490E098870E943B1E8160782F05
:101D20009A8789874E815F8168858A850E9413041E
:101D3000F394EE0CF6E0FF12E2CFF5013197008349
:101D40001F5F1C3071F60E94090E20C00813C0CF1F
:101D50000E943B1E8C0180911A0290911B02081771
:101D60001907A1F08FEF89838A831B820E943B1E93
:101D70008160782F9D838C8349815A816B818D810D
:101D80000E94130410931B0200931A020E94D212A5
:101D90000E946B160E94FA032A96EAE00C94CB2567
:101DA000CF93DF930E94E10FEC01811521E59207AB
:101DB00008F042C0811530E5930708F09FC0883EC7
:101DC000910530F5803E910508F094C0883A910560
:101DD00088F4853A910508F086C08130910509F4B0
:101DE00089C0009709F486C0049708F083C0D0E04A
:101DF000C0E080C08F3B9105D0F7C85AD0E0CC0F2F
:101E0000DD1FC15ADE4F0990D881C02DD46472C045
:101E1000811540E2940750F4C11581E0D80708F01D
:101E200069C0CD3ED10518F3D06564C081159044DA
:101E3000F0F2DF70D06A5EC0811535E5930718F5C2
:101E4000811544E5940708F085C0C11583E5D807DE
:101E500008F06CC0C11522E5D20708F462C0CE01BB
:101E60008370992721E030E002C0220F331F8A954A
:101E7000E2F7C695C69580E2C89FE0011124C22B07
:101E8000D32BDC6837C0811539E59307A8F4811599
:101E900048E5940708F063C0C11586E5D80708F047
:101EA000A6CF8C2F0E948310C82FD0E0DC2FCC2728
:101EB000CC27DF71D0621EC081152AE5920708F495
:101EC00053C090568115904208F091CF8D2F8F719D
:101ED0000E94831090E0982F882788279F719C018B
:101EE0002C2BE901E7CFC55AD0E0C357DE4FC8819C
:101EF000D0E0D064CE01DF91CF910895837099270F
:101F000021E030E002C0220F331F8A95E2F7C69528
:101F1000C69540E2C49FE0011124C22BD32BDD689B
:101F2000E9CFDC2FCC27C16FD06AE4CFCE0183701C
:101F3000992721E030E002C0220F331F8A95E2F793
:101F4000C695C69540E2C49FE0011124C22BD32B55
:101F5000DA68D0CFD82FCC27C46FD06ACBCFD82F98
:101F6000CC27C06FD06AC6CF8F700E94831034E038
:101F7000D695C7953A95E1F7CF709C2FEC01D069C3
:101F8000B9CF972F7C30A8F4663098F470E026E043
:101F9000929F600D711D1124FB0198E4899FE00D53
:101FA000F11D1124EE0FFF1FE455FF4F8591949111
:101FB000089580E090E008950E94C10F0E94D00E25
:101FC000089582389105B9F1B0F48133910509F48F
:101FD0007DC048F48932910509F46DC08A329105BB
:101FE00009F47BC008958533910509F45FC08933F6
:101FF000910509F10895833E9105D9F138F4803EA9
:10200000910529F1823E910579F10895863E910569
:10201000D9F1873E910509F43EC0843E910541F512
:102020002091880221FF24C08091870284FD19C07D
:1020300087EE90E0089520918702237009F05AC03E
:102040002091880223FF14C089E290E00895209136
:10205000870220FD38C03091880230FF09C024FF7C
:1020600043C090E080E008952091870222FDF7CFE1
:1020700008952091870222FD3AC03091880230FDF8
:1020800039C024FFF5CFEDCF2091870223FFF0CF99
:1020900024FDE7CFCDCF2091870223FD2EC03091C4
:1020A000880231FFEECF84EE90E008952091870200
:1020B00025FFDECFC9CF2091870225FD21C02091C9
:1020C000880223FFD5CF89E390E0D2CF2091870209
:1020D00026FFCECF8AE290E008952091870226FF66
:1020E000C7CF81E390E0089583EE90E0089582EEFB
:1020F00090E0089580EE90E0089586EE90E00895D7
:1021000085E390E008959091870292FF06C0282F02
:1021100028712830F9F4877F846093FF06C0282F48
:1021200028712831F1F4877E84612091880220FF94
:1021300006C0382F38713830D9F4877F816021FF8D
:1021400006C0282F28712831D1F4877E816194FD43
:10215000877E0895282F24712430F9F68B7F8860BC
:10216000DCCF282F2471243101F78B7E8861DDCFED
:10217000382F3171313019F78E7F8860E0CF282FEA
:102180002171213121F78E7E8861E1CF1092830287
:102190001092840210928502109286020895CF92C6
:1021A000DF92EF92FF926B017C010E94D2128111AB
:1021B0000EC00E94471EC61AD70AE80AF90AC09242
:1021C0008302D0928402E0928502F0928602FF9010
:1021D000EF90DF90CF9008950F931F930E94D2123B
:1021E000882329F00E94471E1F910F9108950E9495
:1021F000471E009183021091840220918502309144
:102200008602600F711F821F931FEECF80E008953A
:1022100008950E94570D811102C00E94000E0E9475
:10222000620D809330020E946C0D9093880280931F
:1022300087020E9408110E94670D90E00E94110819
:102240008091CA019091CB010E94320808950895AF
:102250000E942711089508950E942B110895E82FD8
:10226000F0E0EA56FD4F80810895089580EA8A954E
:10227000F1F7089500C008950E9436110895089559
:102280000E943F110895A6E0B0E0E9E4F1E10C946A
:10229000B3250E94D212F82E6091A202882309F47D
:1022A00040C086E0E82E8E010F5F1F4FF8018E2D93
:1022B00011928A95E9F7862F90E0B8018A569D4FD2
:1022C0000E9405138823B9F08091890290E046E0CE
:1022D00050E0B8018A569D4F0E94F22521E02093DC
:1022E0003102892B91F4F12C0E9464038F2D2696E4
:1022F000E6E00C94CF25809131028823A1F3F80108
:102300001192EA94E9F710923102A0918902B0E0AB
:10231000AA56BD4F86E0F80101900D928A95E1F72B
:10232000E3CF70E06A567D4F8091890290E08A5633
:102330009D4F0E948C130E944011D8CFF894E82F33
:10234000E295EF70F0E031A1282F2F7081E090E04E
:1023500001C0880F2A95EAF7982F9095932391A3AF
:1023600092A1892B82A3789408950F931F93CF9302
:10237000DF93C6E9D1E089918F3F11F00E949E1151
:1023800081E0CC39D807B9F7C0E9D1E006E911E01E
:1023900089918F3F11F00E949E110C171D07C1F704
:1023A000DF91CF911F910F910895B0E0A0E0EBED88
:1023B000F1E10C94B125EC01D62E062F10E0C801F6
:1023C0008A569E4F7C01FC0180818F3F09F444C0F6
:1023D000F894E82FE295EF70F0E091A18F7021E082
:1023E00030E001C0220F8A95EAF7892F822B81A362
:1023F00082A12095282322A378940E943A11E0E933
:10240000F1E031E0C12C21912F3F59F1A22FA2958B
:10241000AF70B0E090968C9190E02F7002C09595CF
:1024200087952A95E2F780FD1CC0832FC82A330FB9
:1024300081E0E639F80739F7F70180818F3F11F025
:102440000E949E1161E0C11001C060E08D2D0E94CC
:102450003C11C00FD11FC882CDB7DEB7E8E00C94A5
:10246000CD2580E0E3CF809102018091020196E0CA
:10247000811190E09093A20286E0891B80938902EB
:102480000E94B5118CE0E6E9F2E0DF01982F1D9281
:102490009A95E9F7EAE8F2E0DF011D928A95E9F7FB
:1024A00086E00E9494120E9461030895ACE0B0E0BF
:1024B000ECE5F2E10C94B4258E010F5F1F4F8CE028
:1024C000F80111928A95E9F7F12C6F2DC8010E944D
:1024D000D511F394F6E0FF12F8CF4CE050E0B801CC
:1024E0008AE892E00E94F22521E0009709F420E0BA
:1024F000892B41F08CE0F801AAE8B2E001900D923E
:102500008A95E1F76091A20270E06A567D4F46E03D
:102510008AE892E00E949512182F0E944311812BA5
:102520002C96E5E00C94D0250895CF92DF92EF929F
:10253000FF920F931F93CF936C017B01042F2223F3
:1025400049F081E0809334020E943B1E9093330255
:1025500080933202C0913402C1110AC0C0E08C2FB6
:10256000CF911F910F91FF90EF90DF90CF90089542
:1025700080913202909133020E94531E059770F3AE
:1025800010E0A801B601C7010E94F225892B41F095
:10259000A801B601C7010E94FF2510923402DFCFC7
:1025A000C0E0FBCF80913702811107C00E948025D7
:1025B000882351F081E08093370281E090913702C7
:1025C000913009F080E0089582E0809337020E9404
:1025D0007B25F3CF0E94D21208950E94EA128093C5
:1025E00002010E94D21281110E943B1308950E94A1
:1025F000D212811102C00E943E13089581E0909191
:1026000038029A3008F080E008950F931F93CF931B
:10261000DF93EC018B01809138028A30B8F4B80165
:10262000CE010E948913C82F811122C080913802E7
:102630008F3FB9F40E943B1E90933602809335027F
:102640008C2FDF91CF911F910F91089580913502CA
:10265000909136020E94531E843F914000F7C0E0E3
:10266000EFCF8F5F809338028A3020F7C1E0E8CF48
:1026700010923802E5CF0E94721B08950E94751BCC
:102680000895B0E0A0E0E7E4F3E10C94B22579010D
:10269000C82F880FDD0B41155105A9F0FE0193E00D
:1026A000EE0FFF1F9A95E1F7ED5FFE4F818192815A
:1026B000875C9D4F208130E04217530708F49A0150
:1026C000A9010E94FF25CE010E945E1CD82E8823FE
:1026D000D1F001151105B9F083E0CC0FDD1F8A950B
:1026E000E1F7FE01ED5FFE4F438150E0041715074F
:1026F00008F4A801CD5FDE4F6C817D81675C7D4F62
:10270000C7010E94FF258D2DCDB7DEB7E7E00C9401
:10271000CE250E947B1408950E9492140895A4E08F
:10272000B0E0E5E9F3E10C94B525609152027091B7
:10273000530280915402909155020E94621E11E052
:10274000643671058105910518F10E94EC106E5FE9
:102750007F4F8F4F9F4F69837A838B839C8310E0D9
:1027600000E030E020E044E050E0BE016F5F7F4FCA
:1027700082E00E944113182F882351F00E94471EC7
:1027800060935202709353028093540290935502C7
:10279000812F2496E4E00C94D125B0E0A0E0E3ED95
:1027A000F3E10C94AF257C015B016A010E94FE12EB
:1027B00001E010E0882311F00AE010E0C1E0D0E071
:1027C000B501C701F6010995811104C021960C17C6
:1027D0001D072CF4CDB7DEB7EAE00C94CB25CC9FD7
:1027E0009001CD9F300D300D112490E080E045E345
:1027F0004A95F1F70000019682179307C1F7E0CFE1
:10280000A7E0B0E0E6E0F4E10C94AF257B01C090D6
:102810009C01D0909D0101E010E09E01295F3F4F97
:1028200050E040E070E060E080E00E944113182F2B
:10283000882309F448C056018FEFA81AB80A60919E
:102840004E0270914F0280915002909151020E946D
:10285000621E643671058105910568F106E010E09D
:102860009E012F5F3F4F50E040E070E060E081E06C
:102870000E944113D82E66E070E0C5010E946817DF
:1028800011E09F81981310E01D2141F10E94471E25
:1028900060934E0270934F028093500290935102C6
:1028A00086E0FE013196A8E4B2E001900D928A958F
:1028B000E1F711E013C066E070E0C5010E946817FF
:1028C0009F818913CBCF86E0F6013196DE01119608
:1028D00001900D928A95E1F71111E2CF86E0E8E4CC
:1028E000F2E0D70101900D928A95E1F7812F2796AA
:1028F000EAE00C94CB250F931F93CF93DF93EC0169
:102900008B0140E054E10E94CD13882331F04FE861
:1029100053E1B801CE010E94CD13DF91CF911F91F9
:102920000F9108950F931F93CF93DF93C0919C0154
:10293000D0919D01CE01019626E0FB01DC010190C2
:102940000D922A95E1F766E070E00E94681788838F
:102950006F81788589859A8500914402109145029E
:102960002091460230914702601771078207930752
:1029700051F0609344027093450280934602909315
:1029800047020E94CF10DF91CF911F910F910895C0
:102990000E9456200E943D0E0E94632008950E94CE
:1029A00068200E944E0E0E94822008950E94D41D2D
:1029B0000E943C200E94250E0E94C8140E94CF1441
:1029C0000E94330EFBCF80915E0280FF0DC06091AC
:1029D0001F0170E0660F771F6038710570F5611593
:1029E000710569F1862F089581FF07C060911F016D
:1029F00084E0689FB0011124EFCF60911F0182FD38
:102A00000AC080915D028823A9F020911E01609187
:102A10001F01821710F088E0ECCF869FC0011124BF
:102A200033E0880F991F3A95E1F7622F70E00E941A
:102A30008D25D2CF68E070E0D5CF8FE7089581E093
:102A4000089580915E0280FF0CC060911C0170E0CF
:102A500075956795759567956115710549F1862F8F
:102A6000089581FF06C060911C0170E0759567951F
:102A7000F3CF60911C0182FD0BC090915C02992301
:102A8000A1F060911B0180911C01961738F0682F0E
:102A900070E06038710500F38FE70895899FC001E9
:102AA000112470E00E948D25F4CF61E070E0D7CF53
:102AB00081E008958D3E31F40E94E3148195809366
:102AC000620208958E3E19F40E94E314F8CF8F3EFF
:102AD00031F40E94E3148195809361020895803F50
:102AE00019F40E94E314F8CF893F29F40E942115BC
:102AF0008093630208958A3F21F40E9421158195F5
:102B0000F7CF8B3F31F40E942115819580936402A9
:102B100008958C3F19F40E942115F8CF9FE0980F7B
:102B2000983070F4815F990B21E030E001C0220FF2
:102B30008A95EAF780916002822B80936002089563
:102B40008D3F31F480915E02816080935E02089532
:102B50008E3F21F480915E028260F7CF8F3FB9F7FC
:102B600080915E028460F1CF409161028D3E59F404
:102B70008091620287FF0DC01092620241110BC06A
:102B800010925D0208C08E3E81F480916202181698
:102B90009CF3442381F08091630290916402892B1D
:102BA00009F05AC010925C0208958F3E49F447FF25
:102BB000F0CF10926102809162028111ECCFE0CFE0
:102BC000803F19F41416ACF3E4CF90916302893F6F
:102BD00029F41916F4F610926302DBCF8A3F19F438
:102BE00097FFD7CFF8CF909164028B3F29F497FFDE
:102BF000D0CF10926402CDCF8C3F19F41916CCF3CC
:102C0000C8CF9FE0980F983090F4815F990B21E036
:102C100030E0B90102C0660F771F8A95E2F7CB0159
:102C2000809590916002892380936002B2CF8D3F9E
:102C300031F480915E028E7F80935E02AACF8E3F38
:102C400021F480915E028D7FF7CF8F3F09F0A1CFF5
:102C500080915E028B7FF0CF08950E943B1E9C0105
:102C60009091610280916202982B21F030935B0277
:102C700020935A029091630280916402982B21F074
:102C800030935902209358028FE592E00E94FD1C78
:102C9000089586E0EFE5F2E0DF011D928A95E9F7FD
:102CA00010925D0210925C0210925E020895FC0187
:102CB000828181110EC0838181110BC084818111B9
:102CC00008C091E08581811101C090E0892F817059
:102CD000089581E0FCCFA6E0B0E0E1E7F6E10C94D6
:102CE000B62586E0EFE5F2E0DE01119601900D9247
:102CF0008A95E1F7109261021092620210926302CB
:102D0000109264028B819C81892B89F080915A02F8
:102D100090915B020E94531EAC0190915D02992339
:102D2000C9F1809120018417150608F440C08D81F7
:102D30009E81892B91F080915802909159020E94B6
:102D4000531EAC0190915C02992309F471C08091EB
:102D50001D018417150608F479C0BE016F5F7F4F0F
:102D60008FE592E00E948C1D811105C08FE592E0F5
:102D70000E94571681110E942D1686E0FE013196A1
:102D8000AFE5B2E001900D928A95E1F72696E3E077
:102D90000C94D225209157028AE0289F900111249B
:102DA0002417350720F69F5F90935D0202C09F3F76
:102DB000D1F71B81112359F00E94E3149FEF1116E4
:102DC0000CF491E0899F802D1124809361021C8175
:102DD000112359F00E94E3149FEF11160CF491E0B7
:102DE000899F802D112480936202309161023323E8
:102DF00009F49DCF20916202222309F498CF45EB7C
:102E00003403C0011124992359F09093610245EBDA
:102E1000240390011124332339F03093620287CFC9
:102E200081E080936102F3CF81E0809362027FCFE3
:102E3000209156028AE0289F90011124241735071B
:102E400008F08BCF9F5F90935C0202C09F3FD1F749
:102E50001D81112359F00E9421159FEF11160CF4CA
:102E600091E0899F802D1124809363021E8111239C
:102E700059F00E9421159FEF11160CF491E0899FE3
:102E8000802D11248093640230916302332309F46E
:102E900064CF20916402222309F45FCF45EB340311
:102EA000C0011124992359F09093630245EB240348
:102EB00090011124332339F0309364024ECF81E026
:102EC00080936302F3CF81E08093640246CF08953C
:102ED000FC01680F791F8FEF91E3E617F70709F4FC
:102EE00008952191822728E030E087FF06C0880FEF
:102EF000892721503109C9F7F0CF880FFACFCF9336
:102F0000DF93EC01FB018281882309F464C1C430A2
:102F1000FDE5DF07E0F5CB3F9CE5D90730F49E01E6
:102F200022503C4524313105D8F50E946C0D909318
:102F3000880280938702C231ECE5DE0709F41FC1E5
:102F400008F06EC0C9308CE5D80709F4F2C008F06B
:102F50003FC0C530ECE5DE0709F4DBC058F5C330EF
:102F60008CE5D80709F4CDC008F0CFC08091870266
:102F70008160C230DC4509F4AEC080918702909137
:102F800088020E947A0D0E94BC0780E009C0C63A00
:102F9000EDE5DE0751F238F4C2369DE5D90729F296
:102FA000DF91CF9108959E012E5A3D452330310582
:102FB000B8F7BBCF809187028062C730FCE5DF079E
:102FC00009F489C008F4B1C080918702806483C08D
:102FD000CD309CE5D90709F4BAC070F4809187021E
:102FE0008E7FCB30FCE5DF0709F475C008F4A7C07D
:102FF000809187028D7F6FC0CF309CE5D90709F49F
:10300000B6C008F4A8C0C031FCE5DF0709F4B3C0BE
:10301000C131DC4509F0B1CF809187028F7B5BC065
:10302000C1159DE5D90709F4B4C098F5CB3FFCE57F
:10303000DF0709F472C0B8F4C4319CE5D90709F47C
:10304000B6C008F4A2C0C531DC4509F096CF809126
:10305000870282FB992790F921E0922790FB82F961
:1030600090FB83F938C0CD3F8CE5D80709F477C0D1
:1030700008F457C0CE3FECE5DE0709F474C0809138
:1030800088028360CF3FDC4509F077CF80938802C8
:1030900074CFC2368DE5D80709F496C068F4C23003
:1030A000EDE5DE0709F48CC008F477C0C330DD45D8
:1030B00009F063CF80E085C0CE3A9DE5D907E9F0FD
:1030C00068F490918702892F8E7F90FF8160C63AC5
:1030D000DD4509F052CF809387024FCFCF3A8DE57F
:1030E000D80789F1C03BDD4509F047CF90918802B0
:1030F000892F877F93FF8860C9CF8091880288607D
:10310000C5CF809187028260E6CF8091870284607C
:10311000E2CF809187028860DECF80918802816053
:10312000B5CF809188028260B1CF809187028061A3
:10313000D2CF0E94BC07809187028068CCCF80915B
:1031400087028C60C8CF80918802877F9FCF809153
:1031500087028B7FC0CF80918702877FBCCF809111
:1031600088028E7F93CF809188028D7F8FCF809150
:1031700087028F7EB0CF809187028F7DACCF0E9477
:10318000BC07809187028F77A6CF80918702837FCB
:10319000A2CF809188028C7F79CF80918802982F6E
:1031A000909591708E7F892B90FB81F96FCF0E9453
:1031B000BC0790918702892F97FB87F980588BCFA6
:1031C00081E00E94030ED9CE90918702892F8F7ED5
:1031D00094FF806180CF81E0E3CE8B3109F465C03C
:1031E00040F58B3071F078F4863009F447C020F454
:1031F000853059F180E00895873009F448C088305F
:10320000C9F781E00895803109F45DC068F48E301B
:1032100089F790913002892F8B7F92FF8460809391
:10322000300282FD4CC0EDCF863159F3893149F32C
:10323000E1CF8A3201F160F48732B1F020F48E31AF
:10324000C8F28D514CC08932A9F60E947603D9CFBD
:10325000833440F48A3308F041C0853329F0883341
:1032600081F2C8CF833431F681E090E00E941108EA
:103270000E94BC07C6CF0E94000EC3CF80913002CF
:10328000807F8093300281E080936802089590915E
:103290003002892F8E7F90FF81608093300280FD05
:1032A000B0CF817F80933002ACCF90913002892FD4
:1032B0008D7F91FF82608093300281FFA2CF809149
:1032C00030028160EFCF90913002892F877F93FF8A
:1032D00088608093300283FDF2CF93CF895321E041
:1032E00030E0A90102C0440F551F8A95E2F7CA01D8
:1032F000BDCF80E008950E9479190895CF93C82F1B
:10330000809168028130B9F0882331F08230A1F1D8
:103310001092680280E00DC00E94700C8232D1F7DA
:103320008C2F0E94791981111BC08C2F0E94ED18DF
:103330008170CF9108950E94700C823289F38C2F96
:103340000E947B1981110AC0C43199F060F4CB301E
:1033500029F0C03169F782E08093680281E0E8CF0C
:1033600081E090E0E5CFC93221F0C833B9F380E0C5
:10337000DFCF10926802FBCFC93209F43FC0E8F4F6
:10338000C431E1F128F4C73009F45BC081E0D1CF4A
:1033900082EE8C0F8A30D0F7CD51C0936702C330D4
:1033A00009F446C0B0F5C13009F43FC080E291E0B5
:1033B000C230B1F110926702E9CFC03509F452C0B2
:1033C000B8F48AE0CF3411F7E0916502F09166021B
:1033D0003097E1F22081082E000C990B820F911D8D
:1033E0008F3F910509F00CF441C08FEF8083CECF61
:1033F000C135D1F181E0C23539F39BCF80916702AD
:10340000882321F2109267021092660210926502E0
:10341000BDCFC53099F078F08BE191E0C63051F620
:103420009093660280936502B1CF87E592E0F8CF72
:103430008FE191E0F5CF8EE191E0F2CF8CE191E068
:10344000EFCF1092570284E180932001C0931F01B7
:103450008CE380931E0188E080931C0188E28093B6
:103460001B0194CF86EFB0CF8FEFAECF97FFBECFCB
:1034700010828CCFCF93DF93EB0186319C4511F501
:103480000E94700C9A81992399F08A7A91E009F44C
:1034900090E090936902811109C089E20E94480C72
:1034A0000E94B10C80E0DF91CF91089585E3F6CFC3
:1034B00080916902811104C089E20E94500CF0CF12
:1034C00085E3FBCF81E0EFCF0F931F93CF93DF9383
:1034D000C42FD22FFC0182818823C9F040936C0253
:1034E0000E943B1E90936B0280936A0280E28C0FD5
:1034F000883040F4C77081E001C0880FCA95EAF7B0
:103500000E945E05DF91CF911F910F910895109158
:103510006C02141332C080916A0290916B020E9477
:10352000531E883C910548F5C0E2CD0F1D17B9F038
:1035300080E2810F883040F4177081E001C0880F6D
:103540001A95EAF70E946505C83048F481E09D2F7E
:10355000977001C0880F9A95EAF70E945E05802F48
:103560000E945505C83070F6D77081E001C0880F01
:10357000DA95EAF70E946505C5CF80E28C0F8830A6
:1035800008F6C77081E001C0880FCA95EAF7F2CF4C
:103590000F939C01CB01243F4CE5340759F1A8F46B
:1035A000293DFCE53F0701F12A3D4CE53407D1F107
:1035B000283D3C4591F406E221EE41EE68ED7CE5C4
:1035C0000E94641A80E00F910895263FFCE53F07B2
:1035D000E9F0B0F0273F3C45F9F0FC0182818823F7
:1035E00039F110926C02EFCF07E225EE45EE69ED5E
:1035F0007CE5E6CF06E221EE40EE64EF7CE5E0CF2D
:1036000007E225EE44EE65EF7CE5DACF06E221EE37
:1036100042EE66EF7CE5D4CF07E225EE46EE67EF9B
:103620007CE5CECF08E221E045EE6AED7CE5C8CF2F
:1036300081E0C9CF8EE1489B02C08150E1F7489BF1
:10364000FECF0895589880E28A95F1F7589A089528
:10365000FC013BE03A95F1F798E020E080E031E0B2
:1036600040E14A95F1F7880F489B02C0816023270B
:1036700042E04A95F1F7000040E14A95F1F7915098
:1036800079F790E19A95F1F799B132E03A95F1F72F
:10369000000040E14A95F1F7917092272081920F46
:1036A00090830895A1E0B0E0E8E5FBE10C94B32538
:1036B00019828C017C01E60EF11C0E151F0541F4E8
:1036C00081E09981911180E02196E6E00C94CF256C
:1036D0000E941A1BCE0101960E94281BF8018193BB
:1036E0008F01EBCF509A589A08955098589AE89ABB
:1036F000E9E6F0E080818C7F808308956150770B4C
:1037000091E001C0990F6A95EAF720E031E091114C
:1037100008C0222391F0589A80E28A95F1F75898D0
:103720000895492F482339F0589A232740E24A95B3
:10373000F1F79695ECCF5898F9CF5898EDCFFF92C6
:103740000F931F93CF93DF93EC018C01060F111D94
:10375000C017D10729F4CDB7DEB7E5E00C94D0252A
:10376000F9900E94221B68E08F2D0E947E1BF0CFF3
:103770001F920F920FB60F9211240F931F932F9346
:103780003F934F935F936F937F938F939F93AF93E9
:10379000BF93EF93FF93CF93DF930F92CDB7DEB735
:1037A00019820E941A1BCE0101960E94281B082F25
:1037B000069506950695282F22952570902F9570D1
:1037C000290F922F937026952695920F9827977020
:1037D0008981982B09F05CC0043008F059C080E161
:1037E0008A95F1F7589A509A82E08A95F1F700C0CD
:1037F000589888E0089F80011124D801AD5FBE4F22
:103800001696ED91FC9117973097A9F060919C0165
:1038100070919D0114962D913C911597260F371F9D
:1038200011968D919C911297680F791F13964C9168
:1038300013978C910995F801ED5FFE4F6381662324
:1038400051F020919C0130919D0184819581820FDE
:10385000931F0E949F1B0E94221B80E18A95F1F713
:1038600058985098589A80E18A95F1F7F801ED5FE1
:10387000FE4F6081662351F020919C0130919D01A3
:1038800081819281820F931F0E94521B0E941A1BFA
:103890000F90DF91CF91FF91EF91BF91AF919F91E9
:1038A0008F917F916F915F914F913F912F911F91D8
:1038B0000F910F900FBE0F901F9018950F931F93AD
:1038C000CF93DF93EC0104970CF04CC0F894509A1E
:1038D000589885E08A95F1F700009C2F9695957091
:1038E0008C2F8570980F892F83709695969523E07D
:1038F000CC0FDD1F2A95E1F7980F8E01092B0E944E
:10390000221B00C068E0802F0E947E1B80E18A9508
:10391000F1F75098589A489B1EC087E090E048996C
:103920001CC0FE01ED5FFE4F63816623F9F020911C
:103930009C0130919D0184819581820F931F0E948B
:10394000521B811113C0509A589A7894DF91CF91ED
:103950001F910F91089500C0DECF019729F4509A6E
:10396000589A789480E0F2CF00C0D9CF0E941A1BF9
:1039700080E28A95F1F75898509A80E18A95F1F79C
:10398000CD5FDE4F6881662351F020919C0130911C
:103990009D0189819A81820F931F0E949F1B0E9423
:1039A000221B789481E0D2CF90939F0180939E0157
:1039B0000895909373028093720208950E94D21228
:1039C000811103C080916D020895E0917202F0911F
:1039D0007302309729F00190F081E02D0995089548
:1039E00080E00895E0917202F0917302309721F027
:1039F0000280F381E02D09950895E0917202F09123
:103A00007302309739F022E0DC012C930480F581B9
:103A1000E02D0995089520917002309171022817C8
:103A2000390771F09093710280937002E0917202F5
:103A3000F0917302309721F00680F781E02D09950F
:103A4000089520916E0230916F022817390771F0A6
:103A500090936F0280936E02E0917202F091730274
:103A6000309721F00084F185E02D099508959C019F
:103A70002E5F3F4FAC01485F5F4F80E02417350752
:103A800009F40895F90191919F019923B9F38F5F8A
:103A9000F5CF662349F0FC0132960896219126174E
:103AA00029F0E817F907D1F780E0089581E008953B
:103AB0009C01FC0132969FEF80E04191461751F046
:103AC0009F3F19F4411101C0982F8F5F8630A9F7ED
:103AD0009F3F09F40895290F311D97FD3A95F9018B
:103AE00062830895FC01329608962191261303C043
:103AF000DF0111971C92E817F907B9F708950E94A2
:103B0000581D08950E94721D0895029626E0FC013A
:103B100011922A95E9F7089546E050E00E94F225B7
:103B200021E0892B09F420E0822F089508950E9456
:103B3000961D0895811106C081E0809374020E9451
:103B4000971D089582E0F9CF83E0809374020E946C
:103B5000971D08950E949A1D089581E08093740234
:103B60000E94971D08950E94AD1D0895089508951F
:103B70000E94B71D0895089508950E94B61D0895E6
:103B8000CF930E94BB1D0E9456120E94BC1DC0E034
:103B90008C2F0E942F11811105C0CF5FCC30C1F74F
:103BA000CF91089581E0FCCF85B7806885BF85B748
:103BB000806885BF08951F921FB61F9211248F93AE
:103BC0009F93AF93BF9380917502811113C0809131
:103BD000A3029091A402A091A502B091A6024196E1
:103BE000A11DB11D8093A3029093A402A093A502EE
:103BF000B093A602BF91AF919F918F911F901FBE6E
:103C00001F9018958091AB02843031F10E94D4034B
:103C10001092750288E190E020E40FB6F894A89520
:103C2000809360000FBE2093600083B7817F846023
:103C300083BF83B7816083BF7894889583B78E7F75
:103C400083BF0FB6F894A895809160008861809337
:103C50006000109260000FBE08950E94BC070E9491
:103C6000D903089582E084BD93E095BD9AEF97BD96
:103C700080936E0008952FB7F8948091A3029091DD
:103C8000A402A091A502B091A6022FBF08952FB75C
:103C9000F8946091A3027091A4028091A502909182
:103CA000A6022FBF08959C014FB7F8948091A302FC
:103CB0009091A402A091A502B091A6024FBF821BD1
:103CC000930B0895CF92DF92EF92FF922FB7F89463
:103CD000C090A302D090A402E090A502F090A602AA
:103CE0002FBFA7019601261B370B480B590BCA01A2
:103CF000B901FF90EF90DF90CF90089578941F92D4
:103D00001FB61F9211248F939F93AF93BF938091FF
:103D1000A3029091A402A091A502B091A6020196DF
:103D2000A11DB11D8093A3029093A402A093A502AC
:103D3000B093A602BF91AF919F918F911F901FBE2C
:103D40001F90189587E797E79093010880930008E4
:103D500088E19AE00FB6F894A895809360000FBEB2
:103D600090936000FFCF88E19AE00FB6F894A89591
:103D7000809360000FBE90936000FFCF809181021E
:103D8000089508959C0182E08093E9009FEF80915F
:103D9000E800915085FD06C085ED8A95F1F7000099
:103DA0009111F5CF8091E80085FF0CC050E040E014
:103DB00066E070E0C9010E94F4208091E8008E77EF
:103DC0008093E8000895CF93DF93EC0181E0809326
:103DD000E9008FEF9091E800815095FD06C095EDC8
:103DE0009A95F1F700008111F5CF8091E80085FFE9
:103DF00014C050E040E068E070E0CE010E94F42082
:103E00008091E8008E778093E80088E0FE01A9E7C2
:103E1000B2E001900D928A95E1F7DF91CF9108957C
:103E20008093760270937802609377028091AB0260
:103E3000843001F582E08093E9008FEF9091E800F3
:103E4000815095FD06C095ED9A95F1F7000081111E
:103E5000F5CF8091E80085FF0DC050E040E063E0C1
:103E600070E086E792E00E94F4208091E8008E776F
:103E70008093E8000895BC0184E00E94101F08951B
:103E8000BC0183E00E94101F08958091AA02811155
:103E900009C00E9484220E94E1228091E200846095
:103EA0008093E20008951092AA0208950E94AD1D29
:103EB00008956091A70281E0611101C080E00E9435
:103EC000A41D08959091AB0281E0943009F080E048
:103ED0006091A7020E94AA1D089542E061EC81E072
:103EE0000E94002242E261EC82E00E940022909156
:103EF000AB0281E0943009F080E06091A7020E945B
:103F00009A1D08958091AD02833009F461C030F4A8
:103F10008130D1F1823009F49EC008958A3009F4CD
:103F20008AC08B3009F46FC0893009F050C080918D
:103F3000AC02813209F04BC08091B0029091B10285
:103F4000029708F044C08091E800877F8093E800E2
:103F50008091E80082FF37C09091F3008091F200D9
:103F6000029731F48091F100813011F0863021F414
:103F70008091F100809381028091E8008B7780939B
:103F8000E8000E94342223C08091AC02813AF9F407
:103F90008091E800877F8093E8008091B002909143
:103FA000B102892B61F468E089E792E070E00E9439
:103FB00043218091E8008B778093E800089560E0CA
:103FC00090E080E0F3CF8091AB028111C1CF0895E2
:103FD0008091AC02813AD9F78091B0029091B10200
:103FE000892BA9F78091E800877F8093E800809172
:103FF000E80080FFFCCF80912D018093F10080913B
:10400000E8008E77BCCF8091AC02813201F78091BD
:10401000B0029091B102892BD1F68091E800877FA0
:104020008093E8000E9434228091AE0280932D019B
:104030000E94BC0708958091AC02813241F68091C4
:10404000E800877F8093E8000E9434228091AF02CD
:104050008093820208958091AC02813A09F0B7CF33
:104060008091E800877F8093E8008091E80080FFDE
:10407000FCCF80918202C1CF84B7877F84BF0FB607
:10408000F894A895809160008861809360001092F8
:1040900060000FBE80E890E00FB6F8948093610056
:1040A000909361000FBE0E94B31D08950E94842268
:1040B0000E94E122E2EEF0E08081846080837894C7
:1040C0000E946025089581E291E00E94D91C089524
:1040D0008091AB02853031F48091AB02853019F0CC
:1040E0000E942D1E08950E94021E8091A90288231D
:1040F00099F30E94C01D882379F30E94DE200E945C
:10410000BC07EACF08950E9486200895292F3327FF
:104110002330310519F168F42130310509F444C028
:104120002230310509F445C090E080E030E020E025
:1041300025C02132310549F122323105A9F780E449
:1041400090E026EA35E061157105C1F08BE790E05B
:104150002BE235E06130710589F0E6CF9927813097
:10416000910581F0009729F00297F1F6ECE9F4E06F
:1041700002C0EAEDF4E0849190E09F01FA013183FE
:1041800020830895EAECF4E0F6CF89E090E020EF98
:1041900034E06115710591F389E090E029E035E0A4
:1041A0006130710559F3C0CF82E190E029E135E03B
:1041B000E5CF8BE390E02EED34E0E0CF80E189BDE8
:1041C00082E189BD09B400FEFDCF8091D8008F7DCA
:1041D0008093D8008091E00082608093E00080911D
:1041E000E00081FDFCCF0895AF92BF92CF92DF92A5
:1041F000FF920F931F93CF93DF936C01EB018A0122
:104200000E945322F82E811123C00115110539F0A7
:10421000F80180819181C81BD90BC80ED91EB12C21
:10422000A12C2097A9F08091E80085FD22C0809103
:10423000E8008E778093E80001151105A1F0F801E0
:1042400080819181A80EB91EB182A08285E0F82EEE
:104250008F2DDF91CF911F910F91FF90DF90CF9025
:10426000BF90AF9008950E9453228823D1F2F82E78
:10427000EFCFF60181916F018093F1002197FFEF5D
:10428000AF1ABF0ACECFFC018091B2029091B30267
:1042900086179707A0F06115710529F49091E80041
:1042A0009E779093E80090E06115710551F49111AB
:1042B00008C08091E80082FF34C080E00895BC010E
:1042C000F2CF8091AB028823C1F18530C1F180919A
:1042D000E80083FD30C08091E80082FDEACF809144
:1042E000E80080FFE1CF8091F3002091F200382FA9
:1042F0006115710519F02830310558F091E028302A
:10430000310509F090E02091E8002E772093E80035
:10431000CBCF81918093F100615071092F5F3F4FA6
:10432000E7CF8091AB02882341F0853041F0809146
:10433000E80083FFBECF81E0089582E0089583E026
:104340000895FC018091B2029091B30286179707FD
:10435000A0F06115710529F48091E8008E778093B3
:10436000E80090E06115710551F4911108C0809149
:10437000E80082FF35C080E00895BC01F2CF809153
:10438000AB028823C9F18530C9F18091E80083FD33
:1043900031C08091E80082FDEACF8091E80080FF83
:1043A000E1CF8091F3002091F200382F6115710563
:1043B00019F02830310558F091E02830310509F026
:1043C00090E08091E8008E778093E800CBCF8491D5
:1043D0008093F1003196615071092F5F3F4FE6CF16
:1043E0008091AB02882341F0853041F08091E80054
:1043F00083FFBDCF81E0089582E0089583E00895B2
:10440000982F973028F08F708093E90081E008950D
:104410009093E900242F762F50E0981731F0709197
:10442000EC002091ED005091F00021FD02C09F5F53
:10443000E8CF3091EB003E7F3093EB003091ED0000
:104440003D7F3093ED003091EB0031603093EB0015
:104450007093EC002093ED005093F0002091EE005B
:1044600027FDE5CF80E008958091AC0287FF13C05F
:104470008091E80082FF06C08091E8008B778093EE
:10448000E80004C08091AB028111F2CF08958091C1
:10449000AB028823D9F38091E80080FFF8CF8091A8
:1044A000E8008E77ECCF2091E4003091E50095E6AE
:1044B000A9012091EC00822F817020FF06C080911D
:1044C000E80080FF06C080E008952091E80022FD0A
:1044D0001AC08091AB02882389F0853089F08091E1
:1044E000EB0085FD0FC02091E4003091E5004217FC
:1044F0005307F9F29150E1F684E0089582E00895BF
:1045000083E0089581E008950E94F3220E94FB2237
:10451000E0EEF0E0808181608083E8EDF0E0808172
:104520008F77808319BCA7EDB0E08C918E7F8C9340
:1045300080818F7E80831092AA0208950F931F932B
:10454000CF93DF930E94F3220E94FB22C8EDD0E0BC
:1045500088818F77888388818068888388818F7D30
:10456000888319BC1092AB021092A7021092A90284
:104570001092A80200EE10E0F80180818B7F80830A
:1045800088818160888342E060E080E00E940022B0
:10459000E1EEF0E080818E7F8083E2EEF0E08081CA
:1045A00081608083808188608083F80180818E7F34
:1045B0008083888180618883DF91CF911F910F91E3
:1045C0000895E8EDF0E080818F7E8083E7EDF0E0F4
:1045D00080818160808384E082BF81E08093AA0231
:1045E0000E949E220895E8EDF0E080818E7F808316
:1045F0001092E20008951092DA001092E1000895FE
:104600001F920F920FB60F9211242F933F934F9347
:104610005F936F937F938F939F93AF93BF93EF932A
:10462000FF938091E10082FF0BC08091E20082FF46
:1046300007C08091E1008B7F8093E1000E945F259D
:104640008091DA0080FF19C08091D80080FF15C0EA
:104650008091DA008E7F8093DA008091D90080FF0C
:1046600096C080E189BD82E189BD09B400FEFDCF1D
:1046700081E08093AB020E94451F8091E10080FFA2
:1046800019C08091E20080FF15C08091E2008E7F0A
:104690008093E2008091E20080618093E20080914B
:1046A000D80080628093D80019BC85E08093AB026B
:1046B0000E94591F8091E10084FF2BC08091E2008D
:1046C00084FF27C080E189BD82E189BD89B5982F2B
:1046D000917080FFFBCF8091D8008F7D8093D800B0
:1046E0008091E1008F7E8093E1008091E2008F7ED7
:1046F0008093E2008091E20081608093E2008091EB
:10470000A702882309F449C084E08093AB020E9489
:10471000621F8091E10083FF29C08091E20083FF46
:1047200025C08091E100877F8093E10082E0809343
:10473000AB021092A7028091E1008E7F8093E1008E
:104740008091E2008E7F8093E2008091E2008061A0
:104750008093E20042E060E080E00E9400228091CD
:10476000F00088608093F0000E94561FFF91EF9147
:10477000BF91AF919F918F917F916F915F914F9179
:104780003F912F910F900FBE0F901F90189519BC5D
:104790001092AB020E94531F70CF8091E30087FDFF
:1047A00093E09093AB02B3CF1F920F920FB60F928C
:1047B00011242F933F934F935F936F937F938F9326
:1047C0009F93AF93BF93CF93DF93EF93FF93D091DA
:1047D000E900DF708091EC00C82FC17080FDC0E857
:1047E0001092E9008091F000877F8093F000789428
:1047F0000E9418241092E9008091F0008860809354
:10480000F000CD2BCF70C093E900FF91EF91DF91C5
:10481000CF91BF91AF919F918F917F916F915F9158
:104820004F913F912F910F900FBE0F901F901895B1
:10483000AAE2B0E0EEE1F4E20C94B6258CEA92E054
:104840002091F100FC012193CF01F2E0843B9F070E
:10485000B9F70E94821F8091E80083FF1EC18091FA
:10486000AC029091AD029A3008F017C1E92FF0E048
:10487000E85AF94D0C94A125803899F0823809F056
:104880000CC18091B0028F70873008F006C1809310
:10489000E9008091EB0085FB882780F91092E90000
:1048A00006C08091A8029091A90291118260909116
:1048B000E800977F9093E8008093F1001092F10058
:1048C0008091E8008E77E5C0882309F4D3C0823058
:1048D00009F0E3C08091AE028111D6C08091B00290
:1048E0008F702FEF280F263008F0D7C08093E90093
:1048F0002091EB0020FFC8C0933031F48091EB0091
:1049000080628093EB00C0C09091EB009061909327
:10491000EB0021E030E001C0220F8A95EAF72093F6
:10492000EA001092EA008091EB008860EACF8111E2
:10493000B4C01091AE021F778091E3008078812B84
:104940008093E3008091E800877F8093E8000E94D5
:1049500034228091E80080FFFCCF8091E3008068E2
:104960008093E30082E0111183E08093AB0295C055
:104970008058823008F091C08091AE029091AF02D1
:104980008C3D23E09207A1F583E08A838AE2898344
:104990004FB7F894DE01139620E03EE051E2E32F9A
:1049A000F0E050935700E49120FF03C0E295EF70D0
:1049B0003F5FEF708E2F90E0EA30C0F0C7968D9386
:1049C0009D932F5F243159F74FBF8091E800877F77
:1049D0008093E8006AE270E0CE0101960E944321D4
:1049E0008091E8008B778093E80057C0C096E7CFAE
:1049F0006091B0027091B102AE014F5F5F4F0E94B3
:104A00008320BC01892B09F448C09091E800977F6E
:104A10009093E80089819A810E94A121E1CF80389A
:104A2000E1F58091E800877F8093E8008091A702FC
:104A30008093F10045CF811130C09091AE02923049
:104A400060F58091E800877F8093E8009093A7024B
:104A50000E9434228091A702882311F084E005C0CF
:104A60008091E30087FDFACF81E08093AB020E9442
:104A70006D1F13C08091AE02813079F481E09330D4
:104A800009F080E08093A9021092E9008091E8008B
:104A9000877F8093E8000E9434228091E80083FFA2
:104AA0000AC08091E800877F8093E8008091EB0046
:104AB00080628093EB00AA96E3E00C94D2250895DF
:104AC000CF938091AB028823A1F0C091E900CF7011
:104AD0009091EC00892F817090FD80E8C82B109296
:104AE000E9008091E80083FD0E941824CF70C093F4
:104AF000E900CF9108950E9484221092AB0208959C
:104B0000E8EDF0E08081806180838AE18A95F1F7A9
:104B100000C08091D9008170089597FB072E16F48C
:104B2000009407D077FD09D00E94DE2507FC05D050
:104B30003EF4909581959F4F0895709561957F4FB4
:104B40000895EE0FFF1F0590F491E02D09942F9228
:104B50003F924F925F926F927F928F929F92AF920D
:104B6000BF92CF92DF92EF92FF920F931F93CF935A
:104B7000DF93CDB7DEB7CA1BDB0B0FB6F894DEBFF1
:104B80000FBECDBF09942A88398848885F846E8417
:104B90007D848C849B84AA84B984C884DF80EE8061
:104BA000FD800C811B81AA81B981CE0FD11D0FB66A
:104BB000F894DEBF0FBECDBFED010895AA1BBB1B4D
:104BC00051E107C0AA1FBB1FA617B70710F0A61B0D
:104BD000B70B881F991F5A95A9F780959095BC012E
:104BE000CD010895FB01DC0104C08D910190801975
:104BF00021F441505040C8F7881B990B0895FB01E0
:104C0000DC0102C001900D9241505040D8F7089548
:104C1000F999FECF92BD81BDF89A992780B5089584
:104C2000A8E1B0E042E050E00C943C26262FF99930
:104C3000FECF92BD81BDF89A019700B4021639F0FB
:104C40001FBA20BD0FB6F894FA9AF99A0FBE0895CC
:104C50000396272F0E9417260E941626252F0E94B2
:104C60001726242F0C9417260196272F0E9417260B
:104C70000C941626DC01CB01FC01F999FECF06C08D
:104C8000F2BDE1BDF89A319600B40D92415050400A
:104C9000B8F70895F894FFCFA705A705D805D8055C
:104CA00065068106070607068C06FD060C070C073D
:104CB0003C2464244D2564244D259724B8244D2597
:044CC0000F251B257C
:104CC40010020100000001000000000000000601C5
:104CD40000000004070000000000002808503C0702
:104CE40014BE1EE31EC21E401F3B1FC11E01E20074
:104CF400E900EA00B500B600B700CD008301CC009E
:104D04008A0192019401210223022402250226022F
:104D140027022A02B300B4006F007000818283E28C
:104D240000E900EA00B500B600B700CD008301CC6D
:104D3400008A019201940121022302240225022601
:104D44000227022A02B300B4006F0070008182833C
:0E4D5400946697C63435F6F73133323639029D
:00000001FF
